:10400000000004205D6D0000496D0000496D000056
:10401000496D0000496D0000496D0000000000007E
:10402000000000000000000000000000496D0000DA
:10403000496D000000000000496D0000CD6D0000DA
:10404000496D0000496D0000496D0000496D000098
:10405000496D0000496D0000496D0000496D000088
:10406000496D0000496D0000496D0000496D000078
:10407000496D0000496D0000496D0000496D000068
:10408000496D0000496D0000496D0000496D000058
:10409000496D0000496D0000496D0000496D000048
:1040A000496D0000496D0000496D0000496D000038
:1040B000496D0000496D0000496D0000A54E0000EB
:1040C000A54E0000A54E0000A54E0000A54E000024
:1040D000496D0000496D0000496D0000496D000008
:1040E000496D0000496D0000496D0000496D0000F8
:1040F00000000000496D0000956C0000A16C0000FC
:10410000A56C0000A96C0000496D0000496D00001D
:10411000496D0000496D0000496D0000496D0000C7
:10412000496D0000496D00005953000065530000BF
:10413000695300006D530000496D0000496D000097
:10414000496D0000496D0000496D0000496D000097
:10415000496D0000496D0000715300007D5300005F
:104160008153000085530000496D0000496D000037
:10417000496D0000496D00000000000000000000D3
:104180004D6D0000DF6D0000E36D0000E76D000085
:1041900000000000496D0000496D0000496D0000FD
:1041A000496D0000496D0000496D0000496D000037
:1041B000496D0000496D0000496D0000496D000027
:1041C000496D0000496D0000496D0000496D000017
:1041D000496D0000496D0000496D0000496D000007
:1041E000496D0000496D0000496D0000496D0000F7
:1041F000496D000000000000496D0000496D00009D
:10420000496D0000496D0000496D0000496D0000D6
:10421000496D0000496D0000496D0000496D0000C6
:10422000496D0000496D0000496D0000496D0000B6
:10423000496D0000496D0000496D0000496D0000A6
:10424000496D0000496D0000496D0000496D000096
:10425000496D0000496D0000496D0000496D000086
:10426000496D000010B5054C237833B9044B13B1E8
:104270000448AFF300800123237010BDB00200207A
:104280000000000054D5000008B5034B1BB10349E2
:104290000348AFF3008008BD00000000B402002016
:1042A00054D500000020704770477047014B012231
:1042B0005A7270471800002070470000054B1B78A9
:1042C00033B18B070CBF01210221034801F0ACB9C7
:1042D000704700BF79040020F80500204B6870B5D6
:1042E00043608B6883600446CB68C360064B44F828
:1042F000103B01F1100305460E460FCB07C4237097
:10430000336A2B62284670BDD8C7000030B5054619
:1043100085B0404801F0AEF8002211463D4801F05A
:10432000BDF83D493B4802F0EFFF284601F0AAFAEC
:1043300030B310220021284601F074FA102824D14D
:10434000002101A803F074FD344901A803F099FD90
:104350000446B8B9024601462E4801F09FF830499C
:104360002C4802F0D1FF214601222A4801F096F89C
:104370002C49284802F0C8FF01A803F014FD0020D2
:1043800005B030BD01A803F00EFD10220021284623
:1043900001F048FA10281CD1002101A803F048FDC3
:1043A000214901A803F06DFD044678B90246014693
:1043B000184801F073F81A49164802F0A5FF214683
:1043C0000122144801F06AF81849D2E701A803F065
:1043D000EAFC002421461022284601F023FA214657
:1043E0008842CDDD11F8013B002BF9D000221146A7
:1043F000084801F053F80A49064802F085FF0122F7
:104400000021044801F04AF80949024802F07CFF03
:10441000B5E700BF7C0400207FC500008DC500000B
:104420009EC50000A5C50000B5C50000C6C50000BA
:10443000D7C5000070B55C495C4896B001F0A2FB9E
:1044400068B30123584A594904A801F057FB04A94D
:104450000DA8FFF743FF564901A803F0E9FC01A9A5
:104460000DA8FFF753FF044601A803F09CFC94B18C
:10447000504C04A801F0E7F970B101220021204658
:1044800001F00CF804A801F07EF910220146204644
:1044900002F087FFEDE7FEE704A801F0E7F94649DF
:1044A000424801F06FFB0446002868D00123424ACD
:1044B0003E4904A801F022FB04A90DA8FFF70EFF56
:1044C0003E4901A803F0B4FC01A90DA8FFF71EFFA7
:1044D000044601A803F067FC04B9FEE7384E002447
:1044E0003519284600F084FB04A801F0ACF918B196
:1044F00004A801F048F968741234B4F5907FEFD144
:1045000004A801F0B3F92F49284801F03BFBB8B1EA
:1045100001232C4A254904A801F0F0FA04A90DA8AA
:10452000FFF7DCFE284901A803F082FC01A90DA8D1
:10453000FFF7ECFE01A803F036FC04A801F096F9A1
:1045400022491A4801F01EFBB8B101231F4A17493E
:1045500004A801F0D3FA04A90DA8FFF7BFFE1A4979
:1045600001A803F065FC01A90DA8FFF7CFFE01A883
:1045700003F019FC04A801F079F916B070BD0146EA
:1045800001220C480E4D00F089FF1149094802F044
:10459000BBFE284600F02CFB6C740134102C05F196
:1045A0001205F6D1AFE700BF10C50000D40B002004
:1045B0008DC500007C0400201DC500002DC5000035
:1045C0000803002052C5000060C5000071C500004E
:1045D0003EC50000044B0022DA71012218601871F8
:1045E0005A7119729A7270471800002070B54FF412
:1045F000165186B0814803F0E3FC0121804800F0A9
:1046000072FA012305227F497F4800F0F7F9022161
:10461000182002F04DFD0221192002F049FD7B48CF
:1046200000F0E6FF794800F077FF784800F06AFF75
:10463000764800F05DFF754800F0DEFE734800F03C
:1046400019FF00221146714800F028FF53217048DD
:1046500001F0BAF9024600284CD103216B486D4E97
:104660006A4C00F01BFF6C49684802F04DFE0122C5
:104670000321664800F012FF6849644802F044FED6
:104680000125314603A803F0D3FB8DB3644903A889
:1046900003F0EDFB00221146204600F0FFFE03A9C7
:1046A000204602F02CFE01222046002100F0F6FEFA
:1046B00003A9204602F023FE00222046262100F016
:1046C000EDFE03A9204602F01AFE01222046262113
:1046D00000F0E4FE03A9204602F011FE4FF4FA7048
:1046E00002F0CAFB03A885F0010503F05CFBC8E7F4
:1046F0004C49CCE7FFF79EFE4548444D404E01F043
:1047000085F94FF4FA7002F0B7FB404800F0B2FEB2
:10471000002211463D4800F0C1FE43493B4802F0EB
:10472000F3FD142401220021284600F0B7FE2146A3
:104730000A22284602F035FE01220821284600F010
:10474000ADFE304600F0E5F9304600F01BFA1022CD
:104750000146284602F025FE642002F08DFB013C54
:10476000E0D1274800F0D5F92146254800F00FFA9E
:1047700010B12E4B01221A70244800F07BFE00225B
:104780001021224800F08AFE2949204802F0BCFD91
:10479000012207211D4800F081FE26491B4802F036
:1047A000B3FD4FF47A7002F067FB234800F086FFF8
:1047B0000A2002F061FB204800F03AFF00211E4869
:1047C00000F048FF00231A4601211C4800F0EEF8D3
:1047D0001B4A00921B4B19491B4800F00FFA1B495A
:1047E000164800F0FDF81A49144800F000F90121BC
:1047F0000020FFF7EFFE06B070BD00BFF8100020EC
:104800008C04002004000020EC0200207C04002026
:10481000D40B002022D10000E7C500000AC600002A
:104820002CC600002FC6000032C60000780400200D
:1048300053C600005BC60000F805002028040020D5
:1048400008030020B9420000D4050020AD4200005A
:10485000BD42000010B52748274C00F061FB2748F7
:1048600000F057F9264800F003F902F0C5FA216874
:104870000A22411A234802F0A3FD02F0BDFA20608B
:104880001C4800F03AFB012819D11F4BDA79197A3C
:104890008A423ABF0132DA71D971182002F076FCEF
:1048A0000446192002F072FCACB908B3164B1B6821
:1048B000F3B103212046BDE81040FFF78BBE0D4841
:1048C00000F01BFB0130E8D10F4AD379002BE4D074
:1048D000013BD371E1E70C4B1B6820B1012B07D0E2
:1048E00003210120E7E7022B02D003210220E2E7A7
:1048F00010BD00BF58040020CC0200208C04002012
:10490000EC020020F81000201800002070B51422DE
:1049100015211A481A4D00F0DBFA1A4A1A491B48A9
:1049200004F05AFC00241A4800F050F92E1D2C60A7
:104930003019143400F028FBB4F5A07FF8D100241E
:10494000022328222721134885F8444100F034FD32
:10495000114B01221C709A705C70104B1C70104B34
:104960002246E2541234B4F5907FFAD1054A0D493B
:104970000D48BDE8704004F02FBC00BF5804002073
:104980008C04002000000020C74A0000EC02002038
:10499000D00200207C04002028040020D405002040
:1049A00008030020AB420000F8050020037100233B
:1049B0008371C3710372C0E904338361C36080F8FB
:1049C000243083621423C17042717821C36218229B
:1049D0000D23C0E9071243700121184602F068BB9D
:1049E00090F8243013B901234161C371704790F8E6
:1049F000243013B901238161037270472DE9F0411E
:104A00000446082092FBF0F016461F46884604F044
:104A10003BFD0022154B04F0EBFB05F04FF805467B
:104A200060611420C4E90086684305F0D9F8A061EC
:104A3000284605F0D5F8A060284605F0D1F8E060DA
:104A4000284605F0CDF8002F206114BF022600266D
:104A500000256368AB4207DD2368314653F8250023
:104A600002F026FB0135F4E7BDE8F0810000F03FDD
:104A70002DE9F04101210446406905F065F8002563
:104A800007464FF0010862683B78AA425EB20BDD30
:104A9000236853F8250002F079FB18B108FA05F3F2
:104AA0001E433E700135EEE7D4E90212097826EA8A
:104AB00001061670A268216912785A400A70A2682D
:104AC0001370BDE8F08110B50446806805F090F8D9
:104AD000E06805F08DF8206905F08AF8A06905F016
:104AE00087F8204610BD002970B514BF02260026A5
:104AF000051D242421462846324600F060FA013480
:104B00002846192100F067FA342C05F11405F1D17B
:104B100070BD2DE9F041064603884380002580F8EA
:104B2000445126F8045B04460127304600F055FA4C
:104B300030465FFA85F800F088FA70B118F0010F7E
:104B40004FEA58030CBF2278627807FA03F35BB28E
:104B50000BBF1343134323706370B37A5B0704D511
:104B600094F844310BB984F844710135102D06F1E5
:104B70001406DAD12378DB4323706378DB43637058
:104B8000BDE8F0810278407840EA0220704703785F
:104B9000427842EA0322012303FA01F10A4214BFD8
:104BA00018460020704700EB41018888704700EBF1
:104BB00041018A8070470144087D704701440A75AD
:104BC000704704307047143070470000034A026099
:104BD0000022C0E90122C0E90322704780C600001C
:104BE00000231A460133112B01D0C254FAE7704753
:104BF00008B5FFF7F5FF0123037008BDC36101236A
:104C0000C0E902120376002243700370009B4260E9
:104C10000274426103627047F8B5044610300D46D5
:104C200017461E4600F0FCF804F1240000F0F8F8E6
:104C30000020C4E90E0084F8400060722DB90A4BD0
:104C40000A4A0B48222104F061FF9DF81830637175
:104C50009DF81C30E3719DF8203025602771A67106
:104C600023722046F8BD00BF98C600000DC70000A3
:104C7000A9C60000437A23B98372C372C3600123BB
:104C8000437270471FB5044604AB006803E9060091
:104C900002F072FC9DF80D30227AE17900932068D1
:104CA000002302F03FFE2068029A9DF80C1002F0EB
:104CB00081FC206804B0BDE8104002F053BC000045
:104CC00070B50546FFF7D6FF0F4E0079182404FB98
:104CD000006393F9081002F071FAA87904FB0063ED
:104CE00093F9081002F06AFA687904FB006494F9F9
:104CF000081002F063FA054B284693E80600BDE869
:104D00007040FFF7BFBF00BF20C80000DC060020D6
:104D100017B4837A6C4684E8060043B19A070DD530
:104D2000EFF31083B3FA83F35B09C37272B694E8AE
:104D3000060003B05DF8044BFFF7A4BFDB0742BFDA
:104D4000014B8289DA60F2E700280040837A53B190
:104D50009A0703D5C37A33B162B67047DB0742BF07
:104D6000014B82891A61704700280040006802F0F8
:104D70000EBC000030B50F4B0F4A1A6085B00024FE
:104D80005C711C71032542230093CDE90145412349
:104D900040220A490A48FFF73FFF52230093CDE91A
:104DA00001455123502207490748FFF735FF05B059
:104DB00030BD00BFDC06002000093D00E4100020EB
:104DC00054060020A810002098060020084B186800
:104DD00040B9EFF31082074942B972B6BFF35F8F53
:104DE00001220A701A6801321A6070470870F9E7E8
:104DF000E8060020E4060020074B1A6852B11A6842
:104E0000013A1A601B682BB9044B1B7813B1BFF32E
:104E10005F8F62B6704700BFE8060020E4060020FE
:104E2000FF2202700321002242708270C270027160
:104E300041718260C26002617047000010B4184B7B
:104E400003EB011191F84E10C9B211F001040CD01E
:104E5000017803EB0113012183F84E100423437002
:104E60008368D3B15DF8044B184711F0020F08D0E6
:104E7000017803EB0113022183F84E10C3684470DC
:104E8000EFE7490709D5017803EB0113042183F803
:104E90004E10072343700369E3E75DF8044B704746
:104EA00000A0004108B5FFF791FF074B198C074B95
:104EB00001F01F0153F8210008B1FFF7BFFFBDE863
:104EC0000840FFF799BF00BF00A00041EC0600209A
:104ED00038B504461546C4E900120846022102F01E
:104EE000E7F82846022102F0E3F8032323720023A7
:104EF000E36020462361636138BD426903699A42D9
:104F000004DD036943614FF0FF3070474269036974
:104F10009A4203694361B4BF01200020704700003A
:104F200038B50446006802F031F90546606802F0C1
:104F30002DF9237A45EA40056DB25BB2AB4213D03E
:104F4000237A0A49E2685BB245EA8303032DCB5614
:104F50001344E36007D1E3689B102361A369E36115
:104F600001F04AFFA061257238BD00BF61C7000093
:104F70000846114602F09CB808B5C07A02F006F95E
:104F8000003018BF012008BD034A026000210A2238
:104F9000C0E90112704700BF7CC70000002310B5B4
:104FA00083720368C1721B680446984718B1A37ADC
:104FB00043F00303A37201F01FFF606010BD38B51A
:104FC000036804460D465B68984729462046BDE8BD
:104FD0003840FFF7E3BF0181704738B5837A23F08B
:104FE00004038372036804461B689847A37AC3F3DB
:104FF0004003984205460AD001F0FEFEA37A6060A5
:1050000083F00203A372A07AC0F3800038BD01F0E0
:10501000F3FE6368C01A23899842F4D3A37A03F09D
:1050200001039D42EFD001F0E7FEA37A606083F0B8
:10503000010343F00403A37201F0DEFEE368C01A2B
:10504000206101F0D9FEE060DDE7807A00F0010028
:1050500070472DE9F84380460D46174601EB0209DB
:105060000C464C45A4EB05060BD0D8F8003014F8DC
:10507000011B1B68404698470028F2D13046BDE826
:10508000F8833E46FAE77047D0F81C21D0F8183173
:105090009A421DBFD0F81C31C018007E4FF0FF307F
:1050A0007047D0F81831D0F81C01181A48BF00F525
:1050B000807070472DE9F84300251F464FF47A733E
:1050C0000446C0E901534FF48076104B40F8183B7A
:1050D000894690462946324604F0BEFDC4F8185170
:1050E0003246C4F81C51294604F5907004F0B4FD12
:1050F000C4F82052C4F81090C4F8245284F81480E4
:105100006775A5752046BDE8F88300BF8CC7000011
:1051100070B505460C4900690C4E02F027FC286961
:1051200002F067FA287D182404FB006393F9081045
:1051300002F044F8687D04FB006494F90810BDE8AF
:10514000704002F03BB800BFA086010020C80000FC
:105150000023C0F82032C0F82432012380F828123E
:1051600083757047D0F80031D0F804210133DBB2E9
:105170009A421EBFD0F800218154C0F80031704718
:1051800008B5837D6BB1D0F82032D0F824220133EA
:10519000DBB2934205D000F59070FFF7E3FF0120EA
:1051A00008BD0020FCE7D0F80421D0F800319A4275
:1051B0001FBFD0F80431C25CD0F8043101331DBFE9
:1051C000DBB2C0F8043110464FF0FF307047F8B53D
:1051D000002204460D46827590F82812006902F0FC
:1051E0003BFAD0B104F59077D4F82002D4F82462C9
:1051F000861B48BF06F58076AEB138462669FFF7B4
:10520000D2FFC1B2304602F052FA0028ECD1206938
:10521000032102F00FFA032004E02069032102F0C9
:1052200009FA0220F8BD2DB12069032102F002FA2B
:105230003046F7E72846F5E70121FFF7C8BF08B574
:105240001830FFF7B0FF08BD70B50446006902F0E2
:105250004CFA98B1206902F055FA80B1206902F049
:10526000E2F90321206902F0E5F9D4F83052002D6B
:1052700033D10023C4F81831C4F81C3170BD206943
:1052800002F04AFA40B1206902F041FA20B12069E7
:1052900002F047FA0028E1D0206902F03DFA10BB85
:1052A000206902F02AFA0028E8D0206902F039FAD1
:1052B000002834D0D4F82032D4F824229B1A48BFD6
:1052C00003F580734BB304F59070FFF76CFFC1B228
:1052D000206902F0FDF9A075D0E7236820461B691C
:1052E0009847A847C5E7206902F09DF92069032186
:1052F00002F0A0F9206902F014FA0028BED00023C1
:10530000C4F82032C4F824320123A375D4F82C3217
:10531000002BB3D0BDE870401847FF21D8E7D4F880
:105320001831D4F81C2120690133DBB2934207D134
:1053300002F072F920690321BDE8704002F07AB9E9
:1053400002F0F4F9014604F11800FFF70BFF2069A1
:1053500002F069F9EEE700000148FFF775BF00BFF2
:105360006C070020FFF7F8BFFFF7F6BFFFF7F4BFA9
:105370000148FFF769BF00BFA0090020FFF7F8BF91
:10538000FFF7F6BFFFF7F4BF10B53F233E220649F3
:105390000648FFF78FFE1823192205490548BDE886
:1053A0001040FFF787BE00BFB41000206C0700203C
:1053B000D8100020A009002070B50025034E4560DC
:1053C0000660017242738373C57370BDB0C700007D
:1053D00070B5084C05460E46017A2046FFF7B8FE28
:1053E000E97B20463143FFF7CBFE2046BDE8704005
:1053F000FFF722BF6C0700200823C3730021FFF7CB
:10540000E7BF38B50C4641F004010546FFF7E0FF61
:10541000012001F023FD284604F0FB01FFF7D8FF2F
:105420003220BDE8384001F019BD38B504460D46BC
:10543000FFF7CEFF29462046BDE83840FFF7E1BF21
:1054400070B50D4621F00F01144611430646FFF7D3
:10545000ECFF44EA05113046C9B2BDE87040FFF7E1
:10546000E4BF08B50122FFF7EBFF012008BD0022D1
:10547000FFF7E6BF08B50121FFF7F9FF4FF4FA6027
:10548000BDE8084001F0EABC08B50221FFF7EFFFD4
:105490004FF4FA60BDE8084001F0E0BC7FB50E4B68
:1054A000154606460C460FCB0DF1100C0CE90F000B
:1054B000337BAB423CBF03F1FF35EDB204AB03EBF2
:1054C0008505304655F8101C214461F07F01C9B2B2
:1054D000FFF7CDFF04B070BDC0C7000008B5817AEA
:1054E00041F00402827241F00C01FFF7C0FF08BDD9
:1054F00008B5817A01F0FD01817241F00801FFF7E2
:10550000B6FF08BD08B5817A01F0FE01817241F055
:105510000801FFF7ACFF08BD08B5C17A01F0FE0134
:10552000C17241F00401FFF7A2FF08BD10B5012AC6
:1055300088BF417A027388BF41F00801044688BFE2
:1055400041722BB1012A02BF437A43F00403437234
:10555000322001F091FCE17B2046FFF739FF4FF448
:105560007A7001F089FC30212046FFF75EFF41F29E
:10557000941001F073FC30212046FFF756FF41F2F2
:10558000941001F06BFC30212046FFF74EFF96206F
:1055900001F064FC20462021FFF747FF617A204696
:1055A00041F02001FFF763FF0423A3722046FFF7B9
:1055B00095FF2046FFF75EFF02232046E372062197
:1055C000FFF755FF2046BDE81040FFF75DBF000024
:1055D00010B504460548FFF79BFD00236372A27BCC
:1055E000617B2046BDE81040FFF7A0BF6C0700209C
:1055F000FFF7EEBF07B50A4B8DF8051009120093AF
:105600008DF804208DF806105523082269460548B8
:105610008DF8073001F04AFE03B05DF804FB00BFCF
:10562000F0AA0803540E00200122FFF7E3BF000098
:1056300007B5064B009305225523694604488DF8AB
:10564000043001F033FE03B05DF804FBF0AA05045A
:10565000540E002007B5094B8DF804100912009371
:105660008DF8051055230722694605488DF8063048
:1056700001F01CFE03B05DF804FB00BFF0AA070CAC
:10568000540E0020002310B54FF6FF7280F85530FD
:1056900080F8563080F85730831E1A3023F8022FD6
:1056A0008342FBD1044C044802F07FFA18B1204633
:1056B00002F054FBF7E710BD540E002037B5124C32
:1056C000002380F8583080F8593005464FF4614186
:1056D000204602F067F92846FFF7D4FF55250B4B0B
:1056E00000936946052220468DF8045001F0DEFD46
:1056F000074B00930522694620468DF8045001F0BF
:10570000D5FD03B030BD00BF540E0020F0AA050146
:10571000F0AA050213B502AB026803F8011D546834
:1057200019460122A04702B010BD006A10B10368FB
:105730009B681847704710B5036A04461BB90123DC
:105740006360002010BD0020586092B2206A00F013
:10575000B9FF236A5B68002BF1D1F3E7006A10B14F
:10576000012100F013BE704707B501220DF10701BA
:1057700000F03CFD01280CBF9DF807004FF0FF3002
:1057800003B05DF804FB08B5006A10B1FFF7ECFF49
:1057900008BD4FF0FF30FBE738B50546006A58B149
:1057A000FFF7E2FF431C044604D0286A016901396F
:1057B00000F0BCFD204638BD0446FBE7F8B54FF4C9
:1057C0007A7316460022C0E901230F4B0360054699
:1057D00028200C4604F004FA286298B123460246B9
:1057E00004F1280718685968144603C40833BB42FB
:1057F0002246F7D10C22314605F1100005F0C3F81E
:1058000000232B772846F8BDD8C7000000224FF4AC
:105810007A71C0E901210249016002620274704795
:10582000D8C7000008B5006A08B100F0DFFC08BD69
:10583000036A0BB1186970474FF0FF307047006A78
:1058400000B1C069704708B5036A014663B1FFF74C
:10585000F6FF02460846FFF7EBFF47F6FF73101A04
:10586000984228BF184608BD1846FCE710B5044604
:10587000006A30B100F0BCFD206A04F0B9F90023E1
:10588000236210BD006A18B1407A003018BF0120B1
:105890007047000010B58AB000230B4A01930092B4
:1058A0008DF809300A4601230146684600F07AFE69
:1058B000002814BF0124002402D0684600F098FD9F
:1058C00020460AB010BD00BF10C8000038B5012244
:1058D00004460D4601F064F9024628B929462046DF
:1058E000BDE8384001F05CB9012038BD70B50B68E7
:1058F000C45C2F2C08BF0133561E0024C55C2F2D1D
:1059000007D035B101340C2C03F1010306F8015F17
:10591000F4D100251555C25C2F2A08BF01330B6056
:10592000C05C003018BF012070BD00002DE9F04FB1
:105930009146244A9BB09A460023CDE91023804625
:105940000E46079306928DF821308DF84930019369
:105950000C4606AF02AA01A94046FFF7C7FF80F038
:10596000010283465346D2B202A92046C84748B92D
:10597000B44203D100201BB0BDE8F08F204600F0F8
:1059800037FDF7E7BBF1000F0DD0012302AA214636
:10599000384600F007FEB44205460BD0204600F022
:1059A00027FD55B9E6E7B44202D0204600F020FDBD
:1059B0000120E0E70028DDD010AC23463C461F461E
:1059C000C8E700BF10C8000038B590F84130044661
:1059D0000D4613B1383000F00BFD2A460121204658
:1059E00000F0B8F908B9002038BD04F110052146CF
:1059F0002846FFF76BFF0028F5D0294604F1380050
:105A000000F0CCFB003018BF0120EDE7383000F08B
:105A1000EFBC00004A6842600A4A02600A7A0272D9
:105A20004A7A4272CA68C2600A6902614A6942617E
:105A30000A7E0276CA69C2610A6A02624A6A4262E0
:105A4000704700BF10C800002DE9F04F2A4D9BB0F1
:105A5000002792468046103106A89B460797069578
:105A60008DF82170CDE910578DF84970544600F03B
:105A700095FB0DF1400906AE01952F21204604F05B
:105A80005BFF78B323782F2B01D10134F5E7051B99
:105A9000EDB20C2D28BF0C252A46214602A804F0A1
:105AA00072FF1AAB2B44484603F8607C00F0A0FC60
:105AB000012302AA3146484600F074FD50B9019B0B
:105AC000C8F80400C8F8003088F8090040461BB048
:105AD000BDE8F08F304600F08BFC33462C444E4638
:105AE0009946CAE7A4EB0A04CBF800403146404689
:105AF000FFF790FFEAE700BF10C80000F0B5A1B0C3
:105B000004461D4602A801AB1746FFF79DFF019B07
:105B1000FE18FB5C4BB902A916A8FFF77BFF174ADA
:105B200016A92046FFF74AFE0BE000230D938DF8DF
:105B300039309DF81130124A0C922BB92046FFF7EC
:105B400065FE204621B0F0BD2B46324602A90CA8C6
:105B500000F028FD0028F1D002A805F0060500F0AD
:105B600047FC062D03D113990CA800F0DFFB0CA90C
:105B700016A8FFF74FFF3246D2E700BFF4C7000078
:105B800010C8000010B40C46002300F13801034A8D
:105B900020465DF8044BFFF7C9BE00BF95580000D2
:105BA000074B02210022196106495A719A719A72B3
:105BB0001A7383F83020DA63996383F841207047C1
:105BC000D40B002010C8000001460148FFF7CEB8F2
:105BD00098060020FF210148FFF7C8B8980600206A
:105BE00008B50121007901F0A7FA054B1A7832B106
:105BF00000221A700348BDE80840FFF7A7B808BDA7
:105C0000380C00209806002010B5094B1A7804467D
:105C10003AB901221A70074B074893E80600FFF7CC
:105C200077F820790021BDE8104001F085BA00BF67
:105C3000380C00203C0C00209806002038B58379F1
:105C4000044673B140F2012523895A1CAB422281DC
:105C500002D8FFF7BFFFF7E72046FFF7C1FF002399
:105C6000A37138BD062904D91623437100210846C3
:105C7000704700220E4B052917D8DFE801F0030911
:105C80000E1012140B4919601A715A710121EEE7B6
:105C9000094818601A715A71E9E70849F3E7084999
:105CA000F1E70849EFE70849EDE70849EBE700BFEE
:105CB0003C0C002040787D0100093D0080841E00DE
:105CC00040420F0020A1070090D0030048E80100E7
:105CD00038B50C4601F090F80546FFF77BFFFF282A
:105CE00006D001F089F8401BA042F6D3002038BD51
:105CF0000120FCE7F8B505460E461746FFF79EFF64
:105D00002846FFF781FF4FF496712846FFF7E0FF22
:105D100046F04000FFF758FF182427FA04F0C0B2FD
:105D2000083CFFF751FF14F1080FF6D186B1082E99
:105D300014BFFF208720FFF747FF0024FFF74AFF2B
:105D40000306E87203D50134B4F5807FF6D1F8BDBF
:105D50009520F0E7F8B5002502710573857285710D
:105D6000457104460F4601F047F8012106462079A7
:105D700001F09EF90121207901F0DEF94148FEF79A
:105D80009FFF414B414A1D715D711A6093E8060007
:105D90003C48FEF7BDFF0A25FF20013DFFF714FF39
:105DA00015F0FF05F8D13748FEF7D0FF2046FFF782
:105DB0002BFF002211462046FFF79CFF01280546D5
:105DC000E0720CD001F018F8801BB0F5FA6FF0D932
:105DD000012320466371FFF703FF0020F8BD4FF455
:105DE000D57208212046FFF785FF43071BD5257391
:105DF000237B022B0CBF4FF080450025002237216A
:105E00002046FFF777FF2A4629212046FFF772FF39
:105E10000246E072A8B100F0EFFF801BB0F5FA6F08
:105E2000ECD90823D5E70425FFF7D4FE013D15F092
:105E3000FF05E072F8D1AA284FF00203C9D12373FD
:105E4000D6E7237B022B14D13A212046FFF752FFDD
:105E500008B10623BDE7FFF7BDFE00F0C000C02873
:105E600004BF03232373FFF7B5FEFFF7B3FEFFF76D
:105E7000B1FE2046FFF7B4FE39462046BDE8F840A3
:105E8000FFF7F0BE980600203C0C002090D00300E5
:105E900038B5044600F0B0FF0546FFF79BFEFF282B
:105EA000E0720CD100F0A8FF401BB0F5967FF4D94A
:105EB0000F2320466371FFF793FE002038BDFE28B4
:105EC00001D00D23F5E70120F8E7F8B51D4613448E
:105ED000B3F5007F0446164615DC83792BB10368C1
:105EE0008B4202D1038993421AD9237B2160032B71
:105EF00018BF49020A4620461121FFF7FBFE07465C
:105F000030B1032363712046FFF76AFE0020F8BD1D
:105F10002046FFF7BDFF0028F5D001232781A3719C
:105F20002389B34209D3069E013E7719B7420AD0AE
:105F3000FFF750FE06F8010FF8E7FFF74BFE238945
:105F400001332381ECE723891D44A37AADB2258177
:105F500013B1B5F5007F02D32046FFF76FFE012095
:105F6000D5E70BB1FFF7B1BF0120704707B54FF47C
:105F7000007300920022FFF7A8FF03B05DF804FB56
:105F800070B5054608461446FFF71EFE661E04F26D
:105F9000FF1416F8010FFFF717FEA642F9D1FF20F4
:105FA000FFF712FEFF20FFF70FFEFFF713FEE87268
:105FB00000F01F00052806D0112328466B71FFF75B
:105FC0000FFE002070BD0120FCE7F8B5174604461F
:105FD0001E460A4631B9122363712046FFF700FEC0
:105FE00000202AE0037B032B18BF4A021821FFF789
:105FF00081FE054608B10423EEE73A46FE2120461D
:10600000FFF7BEFF0028E8D09EB14FF4167120467E
:10601000FFF75EFE08B91523DEE72A460D2120466C
:10602000FFF768FE08B11423D6E7FFF7D3FD002879
:10603000F9D12046FFF7D4FD0120F8BD38B505465B
:10604000FFF7E2FDFFF7C6FD04462846FFF7C8FD4F
:10605000B4F1FF0018BF012038BD0000034B044A13
:106060001A6000225A711A71704700BF3C0C002060
:1060700000093D0010B500F10C0204460121406A00
:1060800000F014FD60B1236A2BB9237AE268226222
:1060900063F07F032372237A43F0200323720120ED
:1060A00010BD70B50646FFF7E5FF08B9002070BDCA
:1060B000736AF5681A7C023D95405A691B7915444C
:1060C0002B449D4207D05C1E204600F033FC234643
:1060D0000028F6D1EAE7736A1A7C4FF4007303FADA
:1060E00002F2F3691344F3610120E0E710B50446BE
:1060F000406900F0FBFB18B1237E024800EB43101F
:1061000010BD00BF4C0C00202DE9FF410F464B1E77
:1061100001F10A02202103F8011F9342FBD100F193
:10612000FF3C00264FF0070E1CF8013F6BB32E2BEF
:1061300006D1BEF10A0F16D008264FF00A0EF3E77B
:10614000154A6D4602F11008106851682C4603C4C8
:10615000083242452546F7D10DF1FF3111F8012FE4
:106160001AB19342FAD1002013E0B645FBD3A3F154
:1061700021025D2AF7D8A3F16102192A9CBF203BB6
:10618000DBB2721CBB55D6B2CEE73878203818BFC8
:10619000012004B0BDE8F081F6C7000038B5427AAE
:1061A00004460D460AB1002038BD91F82030102B6E
:1061B0000ED1022343724B8C02625B01C361002348
:1061C000012065622072C4E9033363612376EBE743
:1061D000202BE8D103234372496A016200F11C02BB
:1061E000284600F0F7FB0028E9D1DCE72DE9F74F5E
:1061F000437A04468846174623B94FF0FF3003B070
:10620000BDE8F08F037ADA07F7D5C3690269DFF8D2
:10621000DCA0DFF8DCB09B1A9F4288BF9FB2B94672
:10622000B9F1000F5DD0617A2369606A0229C3F376
:1062300008064FEA532223D1406A1044C6F5007580
:10624000237AA945CCBFADB24D465B0602D4B5F565
:10625000007F03D1DAF8003083422BD1002100F017
:1062600045FB0028C9D0204B1E44701908F1FF32AD
:106270003346834232D013F8011B02F8011FF8E7BE
:106280000579013D1540EDB21EB915B953B9236A20
:10629000E360636AE0681A7C5B69023890401844E6
:1062A0002844CBE704F10C02E16800F061FB002810
:1062B000EFD1A2E70146CDF800802B463246DBF84D
:1062C0000000FFF74EFE002897D0A8442369A9EBF1
:1062D00005092B4423611FFA89F9A1E79E1BB044ED
:1062E000F4E738B28BE700BF4C0C002024000020FC
:1062F000500E002037B5437A012B044609D90369B3
:1063000001220DF10701C3F34315FFF76FFF0128C9
:1063100001D0002005E0236903481F33236100EB0F
:10632000451003B030BD00BF4C0C0020F8B5437AD7
:1063300004460E460BB90020F8BDC2698A42FAD362
:10634000022B02D126610120F6E709B9E160F9E7E5
:10635000436A01691D7C4B1E05F10902751ED3407D
:10636000D540AB4200D871B9236AE36004F10C0751
:10637000002DE7D03A46E168606A00F0F9FA013D85
:106380000028F5D1D7E7ED1AF0E7000070B5437AA1
:1063900004460E4643B390F90830002B1ADA012167
:1063A000FFF7A4FE0546F8B1637A012B9CBFE369B1
:1063B000C361238C4383638C83820C4B1B682BB19A
:1063C00000F11601183098472B8B6B82237A03F06B
:1063D0007F0323721EB9237A23F010032372304601
:1063E000BDE8704000F05EBA002070BD440C002093
:1063F00010B501210446FFF7C9FF10B100236372F5
:10640000012010BD70B5437A012B054601D0002054
:1064100070BD037A9A07FAD55B0712D4154B18683A
:10642000FFF70CFE0028F2D12B7A13F0200411D0D4
:1064300001462846FFF7AAFF2B7A23F020032B7290
:10644000E5E7C16903698B42E8D0FFF76FFF0028D9
:10645000E4D1DCE7084A126812B100F00DFAD6E781
:106460002869C0F3080043F01003C0F500702B72D8
:1064700080B2CDE7500E00204C0E0020F7B5437AD5
:10648000012B04460D4602D0002003B0F0BD027A75
:106490009207F9D5C2698A42F6D3002A3ED006692E
:1064A000FFF744FF0028EFD0606AC5B9216A00F009
:1064B00053FB0028E8D02562237AE56163F07F036F
:1064C000237201212046FFF761FF0028DCD0B5428E
:1064D0002946204628BF3146FFF728FFD5E701AA05
:1064E000E16800F045FA0028CED0606A0C4B90F8C5
:1064F000207001994FF6F872102F08BF1346994289
:10650000DAD200F029FB0028BED06FF07042E168BB
:10651000606A00F087FA0028CED1B5E71846B4E7E4
:10652000F8FFFF0F38B51D4B03EB41131546DA7A20
:1065300012F0110F044604D015F0420F01D00020D4
:1065400038BD174A217612686261998A0A0422626C
:10655000598B11432162DA7A12F0180210D1DB69EB
:10656000E3610123637205F00F03237200216B06C0
:10657000C4E903110FD52046BDE83840FFF77EBFC0
:10658000102ADCD104F11C02606A00F023FA002812
:10659000D5D00423E6E70120D2E700BF4C0C002051
:1065A000240000202DE9F043447A85B00646884651
:1065B0001F4624B901A91046FFF7A6FD08B900201F
:1065C00062E0D8F824307362C8E90344DFF8F09041
:1065D000D8F81050D8F81C309D4217D24046FFF72B
:1065E00089FEC5F3431501460028E8D0037823B19E
:1065F000E52B3AD114B10124EAE71CB9D9F80030EF
:10660000357673610B78002BF5D1012407F0120366
:10661000122BD4D1002C3AD001213046FFF766FD71
:1066200004460028CBD020220021204603F014FB92
:1066300001AB03CB206061601A889B78A3721E4B6C
:1066400022811B687BB304F10E0104F1100098470E
:10665000238A63822383E389E382012000F022F905
:106660000028ACD03A46317E0BE00B2201A803F0A3
:10667000D9FA0028ACD107F03003302B9FD03A462E
:1066800029463046FFF74EFF05B0BDE8F08398F885
:106690000930022B93D04046FFF703FD00288ED02F
:1066A0003476064CBFE721222274A37328220823E4
:1066B0006274E373CCE700BF440C00204C0C002054
:1066C000240000202DE9F74F437A012B0446894628
:1066D00016462DD1077AB9072AD57A0720D487F034
:1066E0001007B046C7F300172569B8F1000F00F096
:1066F0008D80606A90F804B00BF1FF3B0BEA552BDC
:106700001BF0FF0BC5F3080517D1B5B9E1680029E7
:1067100040D1236A83B92046FFF7ACFC68B907E093
:10672000C16903699942DAD0FFF700FE0028D6D18B
:106730000123636000207BE0E360626AE368117C10
:106740005269C5F5007A1FFA8AFAC245A3F102031D
:1067500028BFC2468B401344BAF5007F9B442CD11E
:10676000394B3A481A6800685A4504BF4FF0FF3267
:106770001A6059463B464A46FFF727FC0028D7D007
:1067800009F500792369A8EB0A0853441FFA88F831
:106790002361A9E701AA00F0EBF8002848D0636A5A
:1067A000019A93F820002A4B4FF6F871102808BF81
:1067B0000B469A42AFD2E260BFE7EDB92269E369C6
:1067C0009A4219D3012000F06DF80028B0D01E4B7A
:1067D000204AC3F800B0137843F0010313701E4B36
:1067E0001D4405EB0A002B464A4683420BD012F8A3
:1067F000011B03F8011BF8E70121584600F076F869
:106800000028ECD194E75D1BA944BBE7E269237A39
:10681000AA4204D2E56163F07F03237204E00F4AC9
:1068200012680AB1002EF6D1237A1B0703D4304632
:1068300003B0BDE8F08F01212046FFF7A7FD002837
:106840003FF476AFF3E700BF24000020500E002095
:10685000F8FFFF0F480C00204C0C0020440C0020D7
:1068600007B502AB012203F8011D1946FFF72AFF05
:1068700003B05DF804FB000010B5074C2168034627
:1068800039B10648064A0068FFF79FFB10B10023A4
:106890002360012010BD00BF4C0E0020500E0020D0
:1068A0004C0C002038B50D4D2B7804460BB9012057
:1068B00009E003460A490B480B4A09680068FFF7DC
:1068C00084FB08B9002038BD002CF0D02046FFF72B
:1068D000D3FF0028F6D000232B70E8E7480C0020F7
:1068E00024000020500E00204C0C002070B50D4EEE
:1068F0003368834205460C460ED00120FFF7D2FFD5
:1069000008B9002070BD084B084A18682946FFF7EF
:106910002DFB0028F5D03560054B1A7814431C7008
:106920000120EFE724000020500E00204C0C002036
:10693000480C002010B504460120FFF7B3FF78B1E2
:106940000023084A194699540133B3F5007FFAD160
:10695000054B064A1C60137843F0010313700120B5
:1069600010BD00BF4C0C002024000020480C00206B
:10697000C36801338B4270B505460C46164601D2FA
:10698000002070BD90F82020C369102A0CBF080AAF
:10699000C80918440D4B1B6883420AD195F8203072
:1069A000102B0B4B0BD1E4B233F8143033600120C1
:1069B000E7E70021FFF79AFF0028EFD1E0E704F0B6
:1069C0007F0453F8243023F07043EFE724000020C5
:1069D0004C0C00202DE9F74302AEDFF8448046F866
:1069E000041D0546174600244FF4007932460199EC
:1069F0002846FFF7BDFF78B12B7C95F8202009FAD7
:106A000003F31C444FF6F873102A18BF4346019A4B
:106A10009A42EBD33C60012003B0BDE8F08300BF95
:106A2000F8FFFF0F0129F8B505460C46174601D8B7
:106A30000020F8BDC36801338B42F9D390F82030B1
:106A4000C669102B0CBF0B0ACB091E44134B1B68E5
:106A50009E4217D195F82030102B114B19D1E4B27A
:106A600023F814700F4A137843F0010313702B7E40
:106A7000012B82BFAB68F6180B4B4FF0010088BFAB
:106A80001E60D6E700213046FFF730FF0028E1D135
:106A9000CEE704F07F0443F82470E3E724000020ED
:106AA0004C0C0020480C00204C0E00202DE9F74F24
:106AB000146806468B4690463CB301340027F368C1
:106AC000254603F1010A4FF00009F3684B4517D939
:106AD000554588BF022501AA2946304688BF2C4665
:106AE000FFF746FF60B1019A6B1C9AB91A1B5A4511
:106AF00011D16FF0704229463046FFF793FF70B90D
:106B00000027384603B0BDE8F08F4B1E5F42046893
:106B10005F41D4E71C4609F101091D46D5E7AC42A7
:106B200008D205F1FF392A4649463046FFF77AFF79
:106B30004D46E4E7D8F8001021B9C8F8004047B93D
:106B40000127DEE722463046FFF76CFF0028F4D12C
:106B5000D6E701343460D4E773B502230F4E0360E7
:106B600005460C4601AA21462846FFF701FF90B1D1
:106B7000002221462846FFF755FF60B195F82020F6
:106B8000019C4FF6F873102A18BF33469C42E9D394
:106B9000012002B070BD0020FBE700BFF8FFFF0F2F
:106BA000F8B53A4B054619601446DAB1042A01D902
:106BB0000020F8BD00210846FFF798FE0028F7D016
:106BC000334A02EB041393F8AE315B06F0D11B3469
:106BD00002EB0414D4F80A30632BE9D9D4F8064048
:106BE000002CE5D000212046FFF780FE0028DFD0F2
:106BF000274BB3F80B20B2F5007FD9D1197C0029BF
:106C0000D6D0DA89002AD3D05A7B002AD0D0297670
:106C100000212A7129740126287C06FA00F18A4293
:106C200004D0411C07282974F6D9C1E7D98A01B9D3
:106C3000596AA960DA891719EF61B3F811206A84DB
:106C400096B21A7C01FB0272710101F2FF116A62B5
:106C500002EB51226A61B3F8131001B9196AA41A40
:106C60000C44C44040F6F4729442EC6004D80C2307
:106C700085F8203001209CE74FF6F472944285BFDE
:106C8000DB6A6B6210232023F2E700BF500E002066
:106C90004C0C0020014800F0A9BF00BF540E00209A
:106CA000FFF7F8BFFFF7F6BFFFF7F4BF13B5164CB9
:106CB0001649204600F0C0FB1549164800F0BCFB01
:106CC0001549164800F0B8FB1549164800F0B4FB0A
:106CD0004FF08641144800F0AFFB1449144800F00F
:106CE000ABFB1449144800F0A7FB1449144800F00A
:106CF000A3FB01230022CDE900322146114800F018
:106D000013FF02B010BD00BF901000200030004003
:106D1000003400409C10002000200141A8100020F9
:106D200000400141B4100020C010002000040043C6
:106D3000CC10002000080043D8100020000C0043B5
:106D4000E4100020540E0020FEE70000024B1B68F8
:106D500003B11847704700BFF010002008B515496F
:106D6000154B8B420FD1154AD2F8883043F470038B
:106D7000C2F88830BFF34F8FBFF36F8F00F09CF8DD
:106D800000F074FAFEE70E4A9A42ECD08B421046AD
:106D900005D39A42E7D00B4B0B4A002106E000686E
:106DA00043F8040B0432F1E743F8041B9342FBD38E
:106DB000D9E700BFB00200200000002000ED00E095
:106DC00058D50000B0020020EC16002008B500F0F5
:106DD00070F818B9BDE8084000F062B808BDFFF7C8
:106DE000B5BFFFF7B3BFFFF7B1BF0000014B18609D
:106DF000704700BFF0100020014B1868704700BFBB
:106E0000F4100020124A1349F0B5134D97684B68EF
:106E10002E68C3F3806390684C68D5F800C0C4F353
:106E20008064A3420FD166450DD187420BD35268CF
:106E300042F22220D21B504333444FF47A72534320
:106E400003EB1050F0BD664623460746E3E700BF5C
:106E500010E000E000ED00E0F410002040B17823E5
:106E60005843044B596814385A68521A9042FBD858
:106E7000704700BF001000E038B5044670B1FFF75E
:106E8000C1FF054600F014F8FFF7BCFF401BB0F54A
:106E90007A7FF7D3013C05F57A75F5D138BD00004E
:106EA000024A13680133136000F0A2BAF410002004
:106EB00070470020704700006E4A13889BB2138011
:106EC0006D4B42F20E029A82DA68D107FCD56B4B09
:106ED0001A7842F001021A705A68D207FCD440F2C4
:106EE0000512DA625A689006FCD44FF48272634944
:106EF0001A624A6812F00402FBD1614B1A77614AA8
:106F00009A6293F82C2012F01002FAD183F8202014
:106F10005B4B1A4693F82C104907FBD4197F41F0BC
:106F20000201197792F82C309807FBD4536A536208
:106F3000534B1A4693F82C100907FBD4982183F879
:106F400020101369D805FCD54C4B4F4A5A635A6838
:106F50001106FCD44522C3F88420494B77225A639A
:106F6000DA6B5207FCD44FF400629A63022283F872
:106F70003020434B1A6C9007FCD51A6CD107F9D519
:106F80003E4A4521C2F8881063229A643C4B1A6D30
:106F90005207FCD44FF40062DA64022283F84420E2
:106FA000374B5A6D9007FCD55A6DD107F9D5334B45
:106FB00040F206325A625A681207FCD44FF4427209
:106FC0009A625A68D006FCD4304A1A632B4B1A4690
:106FD00059684906FCD440F207311962536813F02E
:106FE0000403FBD12A4901224A7101F580518869C5
:106FF00063F38200886172B6264B9A6062B6264AB5
:10700000D36843F08073D360244A136843F00103CC
:1070100013604FF08013224A1B6803F00301918430
:10702000C3F30222C3F34211120142EA0122C3F365
:1070300082010A431B49A1F84820C3F38252C3F3DB
:10704000C241120142EA0122C3F302431343164A2A
:10705000A2F84830154B1A6802F01F01C2F344131E
:1070600043EA8113C2F3822243EA02334FF08242A1
:10707000138570470040004100140040001C004090
:107080000010004000000104060130000603040067
:107090000008004000600041F0ED00E0001000E05A
:1070A00000200042001C00430020004384008000B8
:1070B000182310B51F4C5843221892F90830013399
:1070C00013D0526823560120904003290DD8DFE8E1
:1070D00001F002250D19DB0103F1824303F50043A2
:1070E0001A44022182F84010586010BDDB0103F100
:1070F000824303F500431A44062182F84010586089
:107100009861F2E7DB0103F1824303F500431A447F
:10711000062182F8401058605861E6E7DB0103F170
:10712000824303F500431A44022182F8401098601C
:10713000DBE700BF20C80000182330B5114D5843CD
:107140002B1893F90820013219D05C682B56D8010E
:1071500000F1824303F5004301229D68A2401542DD
:1071600009D123440D1C93F8404018BF012565F355
:10717000820483F84040044B034409B95A6130BD8E
:107180009A61FCE720C800000080004118230A49EA
:1071900058430A1892F9083001330BD00B56DB0123
:1071A00003F1824303F50043186A5368D84000F0A6
:1071B000010070470020704720C8000038B5182231
:1071C000274D4243AC1894F90830B3F1FF3F44D047
:1071D0000D2905DC002915DA4B1C09D0002008E038
:1071E0001129FBDC0F2905D10021FFF761FFF5E72D
:1071F000084638BD102901D10221F6E71129EDD149
:107200000121F2E7AD566468164BED0162082B448C
:1072100014F00100C9B21A4410D092F8300000F006
:107220000F0040EA01112344C9B282F8301093F8EC
:10723000402042F0410283F84020CFE792F83050DE
:1072400005F0F0052344294382F8301093F84020DC
:1072500042F0410283F84020CBE71846C9E700BF5F
:1072600020C80000008000417047000008B501F010
:107270003FFE02F091FCFFF7F7FF0120FFF7FCFD56
:107280000848094C01F0B8F8064801F047F9FDF745
:10729000ADF9FDF7DFFAFFF70BFE002CF9D0AFF3E5
:1072A0000080F6E714110020000000002DE9F041F5
:1072B00006460D4601EB02080C464445A4EB0507C3
:1072C00007D0336814F8011B1B6830469847002824
:1072D000F3D13846BDE8F08170B5044608460D4646
:1072E00003F049FB23680246294620465B68BDE857
:1072F0007040184709B1FFF7EFBF084670470368B1
:107300008A685B680968184708B5FFF7F3FF08BD8E
:1073100003681B68184700000149FFF7DDBF00BF85
:1073200020D1000070B58AB00D460AA9002301F8EB
:10733000043D012A98BF0A22B5FBF2F402FB145661
:10734000F3B2092E94BF30333733DBB2254601F850
:10735000013D002CF0D1FFF7CDFF0AB070BD2DE943
:10736000F04107460E4615462AB90368C9B21B68A4
:10737000BDE8F04118470A2A05D1002905DBBDE820
:10738000F041FFF7CFBFD2B2F9E72D21FFF7C0FFE1
:107390002A46044671423846FFF7C4FF2044BDE840
:1073A000F081FFF7DCBF10B42AB903685DF8044B25
:1073B0001B68C9B21847D2B25DF8044BFFF7B2BFE1
:1073C00038B50546FFF7EFFF04462846FFF7A4FF50
:1073D000204438BD014B1860704700BF28000020D2
:1073E000024B4FF0FF321A60704700BF28000020A8
:1073F0000C4A1368591C13D0013B136083B972B651
:10740000094B0A4A1A60BFF34F8F0949094BCA68F2
:1074100002F4E0621343CB60BFF34F8F00BFFDE780
:10742000704700BF28000020FCFF0320EF6916F022
:1074300000ED00E00400FA050122016002717047CE
:1074400070B506683568022B45EA827214BF4FF0AA
:107450008074002444EA0204346000689DF81040FF
:10746000426801F0070141EA841114BF5B03002365
:107470000A431A43426070BD10B5036812051C68C8
:1074800002F440120904224301F440310A431A6015
:107490000268536843F44033536010BD02681368B8
:1074A00043F00103136003681A68D107FCD4DA695A
:1074B000D207F9D470470268136843F002031360DF
:1074C0000268D3699B07FCD4704703681A7E12F0E8
:1074D000010F03D11A7E12F0020FFAE7704703681A
:1074E00000225A8370470368187EC0F380007047FB
:1074F0000368187EC00970470268137E43F080035A
:10750000137670470368588BC0F3400070470268D9
:10751000538B43F00203538370470368187E00F0D7
:10752000010070470368986AC0B2704703681A7E0A
:10753000D207FCD5996201207047036801229A7531
:107540007047036801221A7570470268136843F098
:107550000103136003681A68D107FCD4DA69D20703
:10756000F9D470470268136843F00203136002689D
:10757000D3699B07FCD470470268D369C3F3400307
:10758000002BFAD1116863F3410111607047036861
:10759000996203681A7E5207FCD5986AC0B2704798
:1075A00049008068B0FBF1F080B208B1013880B2C8
:1075B000C0B2704770B50468C1F3400601F0010124
:1075C0002568090741EA467129432160114603688D
:1075D000FFF7E6FF187370BD0268136843F00103FC
:1075E000136003681A68D107FCD4DA69D207F9D4AA
:1075F00070470268136843F0020313600368DA6996
:107600009207FCD45A8B012161F305125A83026858
:10761000D3695B07FCD4704703681A685A6842F460
:1076200080225A60704703681A685A686FF3924262
:107630005A60704703681A68C2F38202052A5A68C2
:1076400001F0030161F311425A6004D10268D36969
:107650005B07FCD47047704710B542EA41010368EC
:10766000C9B25C8BC4F30114012C04D05C8BC4F34D
:107670000114022CF5D15C6A61F30A045C620368B0
:1076800042B91A7ED107FCD5588BC0F3800080F038
:1076900001000BE0187EC0F340000028F4D11A7EF0
:1076A000D207F7D55A6842F440325A6010BD0368D9
:1076B00099620368187E10F0010003D15A8BD2073B
:1076C000F8D57047588BC0F3800080F001007047F8
:1076D000036899620368187EC0F3800020B1588B5C
:1076E000C0F3800080F00100704703681868C0F3A1
:1076F0008200031F5842584170470368187EC0F348
:10770000800070470368187E00F00100704703682E
:10771000588BC0F3001070470368187EC0F3400018
:1077200070470368588BC0F3C000704703681A683D
:10773000C2F38202052A02D11A7E9207FCD5986A0A
:10774000C0B27047074A03680020010189588B4284
:1077500001D140B2704701300828F6D14FF0FF3018
:10776000704700BF24D10000052A30B52BD0284C2B
:1077700009010C44B3B12179264C203154F8215031
:107780006FF3861544F8215054F821506D06FBD450
:1077900063B302710AB3012A2ED1412344F8213088
:1077A0001D4B0AE06179E7E7032A1A4C0CD143220A
:1077B00044F8212013B14FF400438360154B53F874
:1077C00021205206FBD530BD042AF7D1442244F8CB
:1077D0002120002BF2D0114BEFE7402344F8213059
:1077E0000F4BEAE7402344F82130E7E7002AF9D0BD
:1077F000012A08D14123F6E7022AD5D1422344F8D1
:107800002130084BD9E7022ACED14223EBE700BF53
:1078100024D10000001C0040006CDC02001BB700FB
:10782000000E270700E1F5052DE9F0410446FFF7BA
:1078300089FF051E3BDB1F4BDFF87CE0DFF87C8017
:1078400029B203EB0111043100204FF0010CC027D5
:1078500031F9023F002B4FEA531203F01F064FEAA3
:107860008202BCBF03F00F03043B02F1604202F549
:107870006142B4BF4344734400F101000CFA06F6C0
:10788000C0B2C2F88061B4BF1F7683F800730428C9
:107890001660DDD12279294601232046FFF764FFD7
:1078A000227929460023BDE8F041FFF75DBFBDE81E
:1078B000F08100BF24D1000000E100E000ED00E015
:1078C0002DE9F04104460F4690461D46FFF7ACFFF8
:1078D0002046FFF7E3FDB8004FEA483326689BB225
:1078E00000F01C001843306023688422012F9A7531
:1078F00014D12268B8F1010F91890CBF102308231D
:107900005D43074BB3FBF5F363F34F31918122687D
:107910009189C3F3CC0363F30C019181BDE8F0813D
:107920000060E316F8B505460F4614461E46FFF7FD
:107930000CFEFFF779FF24059DF818102A6804F45F
:10794000401444EA8174390444F00C0401F44031D9
:10795000214311602B6806F0070646F400365E608E
:107960002A68D3695B07FCD4F8BD000038B505462A
:107970000C46FFF759FF2846FFF72EFE2B6814220E
:107980001A602A68054BD1686400B3FBF4F3013B2D
:10799000DBB263F30701D16038BD00BF006CDC02CD
:1079A00001207047036840F213421B6A1847D0F861
:1079B0001821D0F814319A421DBFD0F81831C018E0
:1079C000007D4FF0FF30704710B504460069FFF7A7
:1079D00065FD0023C4F81431C4F81831C4F81C3212
:1079E000C4F8203210BD01F0F001A1F1300358427B
:1079F0005841704701F47061B1F5007F08D0B1F5CE
:107A0000407F07D0B1F5807F0CBF05200020704774
:107A1000062070470720704701F00F01012904D0AC
:107A200002290CBF0120022070470020704700008F
:107A30002DE9F3410446334D90F82402182606FB45
:107A40000053884693F908101746FFF7B7FB94F8E0
:107A5000250206FB005393F90810FFF7AFFB94F8DB
:107A60002732022B09D194F83802FF2805D006FBF3
:107A7000005696F90810FFF7A1FB94F82802FF289A
:107A800017D00121FFF714FB94F828221823534341
:107A9000E918EA561C4B4968D2011344C4F82C3249
:107AA0001A4B134401228A40C4F83032C4F83422FD
:107AB0001A600122434611462069FFF701FF39464B
:107AC0002046FFF797FF394605462046FFF7A4FFFB
:107AD000394602462046FFF786FF294613460090A6
:107AE00001222069FFF7ACFC206994F8262294F863
:107AF0002712FFF7C1FC206902B0BDE8F041FFF793
:107B0000DABC00BF20C8000018800041148000418A
:107B100008B54FF48072002102F09EF80022C0F8F0
:107B20000021C0F8042108BDF8B516461D46002204
:107B30004FF47A73C0E901230F4B044640F8143B1D
:107B40000F46FFF7E5FF04F58E70FFF7E1FF9DF8A4
:107B5000183084F826329DF81C3084F82732FF2331
:107B6000276184F8246284F8255284F8283284F846
:107B700038322046F8BD00BFACD10000D0F800314B
:107B8000D0F80401181A48BF00F58070704738B566
:107B9000044600F58E752846FFF7F0FF0028FAD15D
:107BA0002069BDE83840FFF790BC08B51430FFF7F6
:107BB000E5FF08BDD0F80021D0F804319A42A5BFF6
:107BC000D0F80031D0F80421D0F80431C3F1FF001F
:107BD000AFBF8018D0F80001181A00F1FF307047CD
:107BE00008B500F58E70FFF7E5FF08BD10B5044637
:107BF0000069FFF787FC28B12069FFF793FC206933
:107C0000FFF785FC2069FFF76EFCF8B12069FFF7EC
:107C100089FCD4F81431D4F818210133DBB2934233
:107C20001FBFD4F8142112191075C4F8143194F838
:107C30002832FF2B0AD004F11400FFF7BBFF0928FC
:107C4000DEBFD4F82C32D4F834221A602069FFF752
:107C500064FCE0B104F58E70FFF790FF18B3D4F820
:107C60002022D4F81C3220699A421BBFD4F820325B
:107C70001B194FF0FF3193F81C111FBFD4F82032AD
:107C80000133DBB2C4F82032C9B2FFF74FFC2069E0
:107C9000FFF72EFC58B12069FFF72EFC2069BDE8E4
:107CA0001040FFF71CBC2069FFF74BFCEFE710BD4D
:107CB000F8B5074600690C46FFF72FFC00283DD1B8
:107CC000244D254ED7F81C32D7F820220133DBB2E1
:107CD00093421ED1EFF31083DB0711D46B68C3F31B
:107CE0000803002BEED0103B1BB2002BBDBF03F0EE
:107CF0000F03043B5B199B19B4BF1B7E93F8003341
:107D00003869FFF70AFC0028DCD03846FFF76EFF21
:107D1000D8E7D7F81C32D7F820220133DBB29342E0
:107D20001EBFD7F81C22D21982F81C41386918BF2F
:107D3000C7F81C32FFF701FC0120F8BD07F58E7073
:107D4000FFF71CFF0028BBD121463869FFF7EEFB87
:107D5000F2E700BF00ED00E000E100E038B5D0F848
:107D60001821D0F814319A421BBFD0F818311B18D3
:107D70004FF0FF351D7D1FBFD0F818310133DBB246
:107D8000C0F8183190F82832FF2B044609D014307F
:107D9000FFF710FF0A28C2BFD4F83032D4F83422DB
:107DA0001A60284638BD10B50446006801F020FF6F
:107DB000204610BD10B50446006808B101F018FF58
:107DC00000232360C4E9013310BD38B504460D46D5
:107DD0000068013102F098FD10B1C4E900050120EE
:107DE00038BD036810B5044623B143688B4201D304
:107DF000012010BD2046FFF7E8FF0028F9D0A36856
:107E0000002BF5D122681370F2E770B50E461146CB
:107E100004461546FFF7E5FF20B92046FFF7CAFFE5
:107E2000204670BDA5603146206802F09CFDF7E752
:107E300038B500230446C0E9003383600D4639B1EC
:107E4000084602F098FD294602462046FFF7DDFF6E
:107E5000204638BD38B5054608460C4602F08BFD75
:107E6000214602462846BDE83840FFF7CEBF10B590
:107E7000044619B1FFF7EEFF204610BDFFF79AFF49
:107E8000FAE7826808B53AB921B10878B0FA80F00B
:107E9000400900E0012008BD006809B90078F5E755
:107EA00002F057FDF2E73F20704713B502AB0268BE
:107EB00003F8011D546819460122A04702B010BD05
:107EC0000221006900F002BC0321006900F012BC2D
:107ED00010B51346074AD27904461AB901236360E4
:107EE000002010BD0A460069032100F0F5FC0028BF
:107EF000F4D0F6E73000002010B5054C2368591C7B
:107F000004D103685B69984703462060184610BD9A
:107F10007C000020064A1368591C03D10221006925
:107F200000F0CABC4FF0FF3111601846704700BF27
:107F30007C00002003780349023303704222024888
:107F400000F06CBD380000201411002010B502783C
:107F50004378A12A08D1212B1BD1072215491648A5
:107F600000F05CFD012010BD212A12D1202B12D17E
:107F700007221049104800F0FBFB0E4B1A68B2F5BF
:107F8000966F0ED1D87910F001040AD1FA20FFF7CC
:107F900021FA0020E7E7222B06D1064B8278DA711E
:107FA000EBE7FFF71DFAF4E7232BF2D1034B4288EE
:107FB0001A60EEE730000020141100202C00002091
:107FC00070470000054B00224FF47A71C3E901218C
:107FD00003491960034919611A767047F8100020A7
:107FE000E0D1000014110020704710B501F1080421
:107FF00000F00F02D3B2092ACCBF3733303304F874
:10800000013DA1424FEA1010F2D110BD10B5044657
:10801000806901F0EDFDA06A01F0EAFD204610BD87
:1080200010B50446FFF7F2FF204601F053F8204652
:1080300010BD00000329F0B407D12B4B53F82000EA
:10804000F0B10368F0BCDB68184782291AD12749D0
:10805000274AC3B201EB43150324AE6964F31E76CD
:10806000AE610968083302EB80105B016861C818D3
:10807000027942F080020271CA5C64F30612CA54AB
:10808000F0BC70470029FBD1184DC3B205EB431279
:108090000327946867F31E749460164C083304EB4E
:1080A000801050605B012868C45C012666F30204FE
:1080B000C454D2F818C00E4C67F31E7CC2F818C026
:1080C0005461C45C66F30614C454C5189368402018
:1080D00060F39B339360936861F30D0393606B7956
:1080E00003436B71CCE700BF18110020CC150020B2
:1080F0004011002000130020EFF3108202600122E3
:10810000426072B67047036813B962B6BFF36F8FEF
:10811000704737B5056904466846ADB9FFF7ECFF0F
:10812000019B13F1FF3303D394F82450EDB2F8E729
:1081300068460193FFF7E7FF15B9002003B030BD93
:10814000206AE369C01AF9E7FFF7D6FF019B002513
:1081500013F1FF3303D394F83450EDB2F8E76846D7
:108160000193FFF7D0FF002DE7D0206BE36AE9E72A
:108170004368027A1B6803EB421393F8092142F02B
:10818000010283F80921027A4368C16803EB4213B4
:108190009A6861F39B329A60027A436803EB421358
:1081A0009A686FF30D029A604368027A1B6808327E
:1081B00003EB42131A7942F040021A717047F7B587
:1081C000036904460E4617466846002B44D1FFF764
:1081D00093FF019B013B5D1C0ED094F82420591E97
:1081E00002F0FF0532B968460193FFF78CFF28467D
:1081F00003B0F0BD0B46EEE768460193FFF783FF3F
:108200000025AF42E36909D0226A9A4206D9A269E1
:10821000591CE161D35C73550135F2E7226A9A4239
:10822000E5D100260123E66123616846FFF764FF7C
:108230003746019B013B581CD5D084F8246094F844
:108240003520591E32B184F8357020460193FFF76E
:108250008FFFEEE70B46EEE7FFF74EFF019B013B7A
:10826000591C08D094F83420591E02F0FF05002A4A
:10827000B9D00B46F4E768460193FFF744FF0025A9
:10828000BD42E36A02D0226B9A421AD8226B9A420C
:10829000ADD10026E66226616846FFF72DFF37461E
:1082A000019B013B5A1C9ED084F8346094F8352021
:1082B000591E6AB184F8357020460193FFF758FFC4
:1082C000EEE7A26A591CE162D35C73550135D7E72A
:1082D0000B46E7E737B54368027A1B68083203EBC1
:1082E00042130446DA79D00727D50125DD71D4E998
:1082F0000132D2B203EB421361699A68C2F30D02F4
:1083000009BB2262226A002A3CD0A26A65616846E3
:108310005A60FFF7F1FE019B013B591C2ED084F8F7
:10832000245094F83420591E02F0FF003AB184F82A
:10833000355068460193FFF7E6FE03B030BD84F880
:1083400035000B46E9E72263226BDAB10022626155
:10835000A2695A606846FFF7CFFE019B013B5A1C99
:108360000CD084F8345094F82420591E02F0FF00F9
:10837000002ADCD184F835000B46F0E7684601930B
:10838000FFF7C1FE2046FFF7F3FED6E737B502AD93
:10839000002305F8013D0C462846FFF7CBFD236876
:1083A0001844206000F0C8FE294600F095FE2368BE
:1083B000184420609DF8070003B030BD03290BD19D
:1083C0000C4B1B6893F8642142F0800283F864210F
:1083D000022283F86721704701290AD1054B1B68E7
:1083E00093F8242142F0800283F82421022283F8AA
:1083F00027217047CC150020404B70B50121002487
:1084000006464C201C70FEF753FE01214C20FEF75F
:1084100093FE3B4B3B4D1C7001214B20FEF748FE69
:1084200001214B20FEF788FE374B38489A6942F00D
:1084300001029A611A6942F480621A61344B93F81E
:10844000582042F0010283F8582093F83C2002F0B3
:10845000F00283F83C2093F83C2042F0070283F8B6
:108460003C2093F8592042F0010283F8592093F8F8
:108470003C2002F00F0283F83C2093F83C2042F0AD
:10848000700283F83C20234B4122C3F8A820FEF75A
:10849000ADFC284600F062FE284600F079FE2A680E
:1084A000137864F3C71313702A68137843F0040336
:1084B00013702A68138964F383031381164B4FF4F6
:1084C000803183F8504383F8514383F8524383F853
:1084D000534399604FF4003199604FF480219960C3
:1084E0004FF400219960137843F0020313702A6857
:1084F00093789B07FCD40123337070BD35110020A5
:1085000034110020CC15002000080040D58E00005A
:1085100000800041001C004000E100E0007880B1D4
:10852000084B1B681A896FF300021A811A8B42F0FC
:1085300008021A831A8B42F004021A83024B0022AB
:108540001A607047CC150020C41500200E4B9A69A4
:108550006FF30D029A611B68022283F8072193F8DA
:10856000052142F0800283F8052193F80721920744
:10857000FBD54FF082439A7A61F306029A729A7A97
:1085800042F080029A727047CC1500200B7910B52A
:108590000C465BB90846FFF7D9FC08B1012010BDB5
:1085A000094B9A6960F30D029A61F7E700F0C4FD88
:1085B000214600F0B2FD0028F0D1034B9A6960F328
:1085C0000D029A61EBE700BFCC150020832A2DE94C
:1085D000F0410D4616D1CBB23049314A01EB431080
:1085E0000326846966F31E748461083302EB8515E3
:1085F000096845615B010420CA5C60F30612CA5435
:10860000BDE8F081022A42D1264E56F8210010B171
:1086100003685B699847382000F05AFD1F4F224BD2
:1086200003604FF48078002304460362C0E90383AB
:1086300080F8243043610363C36180F83430C3623F
:1086400080F83530C0E90175404601F0C9FAA061F3
:10865000404601F0C5FAEBB207EB4312A062916805
:10866000032060F31E719160083339685B01CA5CB6
:1086700060F30202CA546368217AA26903EB4113D2
:1086800020465A60FFF774FD46F82540B8E72846B3
:108690001146BDE8F041FFF7CDBC00BFCC1500206E
:1086A000401100201811002004D2000070B5064EC1
:1086B0000546012456F824202AB121462846FFF712
:1086C00085FF0134F6E770BD80000020074B53F8AA
:1086D000210010B103689B681847054BC9B203EB32
:1086E00041118868C0F30D00704700BF18110020C9
:1086F000CC15002010B50C46FFF7E8FF58B1064B2B
:10870000E4B21968083401EB44114B7943F080035B
:108710004B710223CB7110BDCC150020124B30B52C
:10872000CAB203EB8111114B55015819082441605D
:10873000816864F39B31816081686FF30D01816012
:108740001868224400EB42110C7944F040040C718B
:108750008C796406FCD500EB4212D179C907FCD5AF
:108760002B449868C0B230BD00130020CC15002007
:1087700038B50C4B14461A6892F8043143F04003A4
:1087800082F804310D460021FFF7C8FF0649A042D8
:1087900028BF20460023A34203D05A5CEA54013389
:1087A000F9E738BDCC1500200013002010B50B4BA5
:1087B000C9B2490158180B448268C2F30D023F2A1E
:1087C00089BF84688268403A62F30D0496BF6FF3F4
:1087D0000D02846082609868C0B210BDCC15002084
:1087E0002DE9F0471D462F4B1B6807460E46914664
:1087F000002B54D02C4C227802F0FF0112B94B20F0
:10880000FEF79AFC64232370284B53F8260030B1FE
:1088100003682A4649465B68BDE8F0471847314679
:108820003846FFF753FF854204D931463846FFF7F3
:108830004DFF0546DFF87CA031463846FFF7B6FF0E
:10884000F4B2DAF800301A494FEA4418434401EB15
:10885000861193F8082142F0010283F80821484666
:108860002A4601F0EEF9BDB131463846FFF72EFF3A
:1088700090B9DAF8002004F1080302EB43131979E8
:1088800041F0400119710121D97102EB080393F8FD
:1088900009210A4383F809212846BDE8F0874FF0F3
:1088A000FF35F9E7C415002034110020181100200D
:1088B00000130020CC15002007B501230DF107029D
:1088C000FFF78EFF01280CBF9DF807004FF0FF3027
:1088D00003B05DF804FB00002DE9F74F9846384BD4
:1088E0001B6889469246002B42D0B8F5804F3FD88E
:1088F000344C227802F0FF0112B94C20FEF71CFC28
:10890000642323705FFA89F42F4B04F1080B4FEABC
:108910004B1203EB891300260192B8F1000F29D006
:108920002A4A01991568691889790092C909284964
:1089300024D0284A28481268B2FBF0F0274A424364
:108940001720B2FBF0F205EB4B10C779BF0715D427
:1089500011F8097017B912F1FF32F6D2012301F8AC
:108960000930009B03EB4414A3696FF30D03A3616B
:108970004FF0FF36304603B0BDE8F08F4746402F3A
:1089800028BF4027002201F80920184651463A46E0
:1089900001F057F9009A02EB441205EB4B155061B8
:1089A000916967F30D0191610222EA716A7942F0DF
:1089B000800203466A713E44A8EB0708BA44ACE75C
:1089C000C41500203511002040110020CC150020D6
:1089D00037110020A800002040420F007011010054
:1089E00070B50C4C0D4604EB8514114620461A4612
:1089F0001E4601F026F90849EDB201EB451130465B
:108A00004C618B696FF39B338B618B6966F30D034C
:108A10008B6170BD40110020CC150020114B1B78DC
:108A20002DE9F04107468846164653B90E4B1C788F
:108A300054B10E4D0E482C882044344401F001F905
:108A40002C803046BDE8F0811546002DF9D02B462C
:108A500008EB040200213846FFF7C2FF04442D1A38
:108A6000F3E700BFC0140020C1150020C21500208C
:108A7000C1140020F8B5012A00AF0D4614462BD9C9
:108A8000D31D03F4FC73ADEB030D084601F073FF37
:108A90000130400003238DF800008DF801306E4650
:108AA000013D02230020A3420CD215F8011F49B159
:108AB0005A1CD2B29442F15403D00233B054DBB208
:108AC000F1E723461A4631460448FFF7A7FF003076
:108AD00018BF0120BD46F8BD0020FBE7141100209F
:108AE0002DE9F04385B004AE002446F8104DDFF8C0
:108AF0008890884601273146054689F80070FFF7BF
:108B000045FC40F20923ADF80430A0238DF80B306A
:108B100032238DF80C30009B8DF80A400933B8F1F0
:108B2000090F8DF80970ADF806308DF8080089F846
:108B3000004008D1424601A92846FFF76FFF0120F7
:108B400005B0BDE8F083DFF83480009488F8007049
:108B5000074F092201A928463C80FFF75FFF3146F5
:108B60002846FFF713FC88F800403A880149E3E7FC
:108B7000C2150020C1140020C0140020C11500201F
:108B8000F0B5CF78022F93B006460D4608D1C988BC
:108B90002C48FFF7A5FF003018BF012013B0F0BD2F
:108BA00000F0CAFA294600F0AAFA041E03D0CCBF8E
:108BB00001200020F2E7012F0AD1EA88112A3CD8CF
:108BC0002149D2B262B13046FFF728FF0120E5E724
:108BD000032F34D1AB782BB9EA88032A2AD91B4951
:108BE0000A78F0E7022B05D1AA7919493046FFF738
:108BF00041FFD3E7012B02D1AA791649F6E7032BEF
:108C00001DD1154B01A91868FFF7EFF9134B03A904
:108C10001868FFF7EAF9124B05A91868FFF7E5F99C
:108C2000104B07A91868FFF7E0F98DF82440AA79DE
:108C300001A9DBE7D2B20549C4E70349D0E72046E2
:108C4000ACE700BF1411002047D2000036D200006C
:108C50001CD200003AD20000FC618000106080004D
:108C6000146080001860800037B54B780C460B2BE1
:108C70000FD8DFE803F0061E0E2F0E4549774C4F44
:108C80006B6E097841B9ADF80410022301AAFFF711
:108C9000A7FE012003B030BD0023ADF80430324BF5
:108CA0001B78012B08BF8DF8043001AA0223002194
:108CB000EDE78B78012B4FF0000303D1ADF80430C2
:108CC0002A4BEDE7284A1370294A916963F30D0195
:108CD0009161DEE78C78012C07D1244B02AA002198
:108CE0001C7002F8041D2346D1E7002C3AD11E4B1C
:108CF000012018701E4B9A6964F30D029A61C9E74E
:108D00008978FFF723FCC4E7FFF73AFFC2E70123A6
:108D1000184ACCE70B7813F01F0523D1FFF7C6FCE8
:108D2000144BA2781A60124A136893F8291141F083
:108D3000020183F8291193F8491141F0010183F8E8
:108D40004911936965F30D039361A2E701230A4A70
:108D5000ADE7094B8A781A60054B9A696FF30D02EB
:108D60009A6196E7002095E7361100203E11002019
:108D7000CC150020C4150020C81500202DE9F843AB
:108D80004D4B1D780746002D40F087804B4C2368E3
:108D90009B8B19070ED529462846FFF74BF9236808
:108DA00093F8092142F0100283F80921444A156022
:108DB00008229A8323689A8B52071BD504229A8330
:108DC000404A13784BB11378013BDBB21370137830
:108DD0001BB901214C20FEF7AFF93B4A13784BB188
:108DE0001378013BDBB2137013781BB901214B20C0
:108DF000FEF7A2F9236893F80721D60626D510229C
:108E000083F8072193F80421304942F0400283F8A7
:108E100004210B7813F0600F384640D1FFF724FF90
:108E2000236800283ED093F8052142F0800283F8A1
:108E3000052193F80721550608D5402283F807211C
:108E400093F8082142F0400283F808212368DFF8F4
:108E500080901E8C002506F0FE064FF00108E9B256
:108E6000DEB146FA05F3D80714D5236805F10802E8
:108E700003EB4213DA79D20702D4DB799B0705D5DD
:108E800059F82500A0B103681B68984708FA05F354
:108E900026EA03060135092DE1D1BDE8F883FFF785
:108EA00075FBBDE74FF08242202182F80511C0E733
:108EB0003846FFF783FAE9E7C1150020CC150020FA
:108EC000C4150020351100203411002000130020AB
:108ED000181100200148FFF751BF00BF14110020F6
:108EE000024B4FF082421A60704700BFCC15002041
:108EF0003F4BF7B51B684FF47A72B3FBF2F3013BBB
:108F0000B3F1807F70D23B494B603B4BC02283F86A
:108F10002320072000228A600860802183F8231024
:108F2000364B596941F470415961996941F4FC41EA
:108F30009961D96941F07801D961196A6FEA912183
:108F40006FEA8121196203F5A0534121C3F8201172
:108F5000C3F8241103F14073009303F58063019378
:108F60000424022505264FF4C0575DF822301988E5
:108F700064F30A211980D98865F3C401D980196B7B
:108F80000807FCD4DE72196B4906FCD49F80196B6C
:108F900011F00401FBD19972186B10F02000FBD185
:108FA0001AB300F031F8164B4422C3F82821D3F845
:108FB00028215006FBD5134A13469168C907FCD4F3
:108FC000117841F0010111709A68D207FCD4002297
:108FD0005A709A89022161F30B229A81DA8961F32E
:108FE0000B22DA8103B0F0BDFEE70122BDE700BF2E
:108FF000A800002010E000E000ED00E000080040C4
:10900000001C0040002400432E4B1A46196BC90671
:10901000FCD42D490B6BDB06FCD401382A4B0A2803
:109020004CD8DFE800F0061B212529324B363A48A0
:109030003E00264BDA696FF31342DA61DA6942F0D7
:109040000402DA611F4A137A6FF30303137292F872
:1090500008346FF3030382F8083470471B4BDA6956
:10906000012161F31342E8E7184B0221DA69F8E7BE
:10907000164B0321DA69F4E7144BDA69042161F332
:109080001342DA61DA690A43DBE7104B0521DA693A
:10909000E7E70E4B0621DA69E3E70C4B0721DA69B3
:1090A000DFE7117A042060F3030111721A7A60F38A
:1090B00003021A727047117A0220F4E7117A032032
:1090C000F1E700BF001C00430020004300180040EF
:1090D00000F086BD00F08CBD70B544680E460025DA
:1090E0005CB1236831465B6820469847002802DB64
:1090F0000544E468F4E74FF0FF35284670BD38B505
:1091000044680D463CB1236829469B682046984731
:1091100010B9E468F6E7204638BD38B544680D4616
:109120003CB1236829461B682046984710B9E4687B
:10913000F6E7204638BD0000064A136813F0010325
:1091400006D1054940F202404B60012308801360BC
:1091500001487047D0160020D416002010B50346F1
:10916000044653F8041B0A7842F001020A701846BC
:109170004FF48072002100F06FFD22680346917861
:10918000C807FCD491788907F9D4536210BD000058
:1091900030B5104B04681B68258D03F01F011F2993
:1091A00008BF052161F38A1525850168C3F34412C0
:1091B0000C8D1F2A08BF1D2262F304040C8502686F
:1091C000C3F38223118D072B08BF032363F30E31F2
:1091D000118530BD840080000B460146184600F022
:1091E000BBBC000081F0004102E000BF83F00043FF
:1091F00030B54FEA41044FEA430594EA050F08BF32
:1092000090EA020F1FBF54EA000C55EA020C7FEAF5
:10921000645C7FEA655C00F0E2804FEA5454D4EB72
:109220005555B8BF6D420CDD2C4480EA020281EA3C
:10923000030382EA000083EA010180EA020281EA74
:109240000303362D88BF30BD11F0004F4FEA0131C6
:109250004FF4801C4CEA113102D0404261EB4101D5
:1092600013F0004F4FEA03334CEA133302D052425B
:1092700063EB430394EA050F00F0A780A4F1010417
:10928000D5F1200E0DDB02FA0EFC22FA05F2801851
:1092900041F1000103FA0EF2801843FA05F3594137
:1092A0000EE0A5F120050EF1200E012A03FA0EFCB6
:1092B00028BF4CF0020C43FA05F3C01851EBE371E0
:1092C00001F0004507D54FF0000EDCF1000C7EEBFD
:1092D00000006EEB0101B1F5801F1BD3B1F5001F3B
:1092E0000CD349085FEA30004FEA3C0C04F101045A
:1092F0004FEA445212F5800F80F09A80BCF1004F83
:1093000008BF5FEA500C50F1000041EB045141EA04
:10931000050130BD5FEA4C0C404141EB010111F405
:10932000801FA4F10104E9D191F0000F04BF0146B0
:109330000020B1FA81F308BF2033A3F10B03B3F18E
:1093400020020CDA0C3208DD02F1140CC2F10C021E
:1093500001FA0CF021FA02F10CE002F11402D8BF7C
:10936000C2F1200C01FA02F120FA0CFCDCBF41EA48
:109370000C019040E41AA2BF01EB0451294330BD17
:109380006FEA04041F3C1CDA0C340EDC04F11404F4
:10939000C4F1200220FA04F001FA02F340EA0300CB
:1093A00021FA04F345EA030130BDC4F10C04C4F111
:1093B000200220FA02F001FA04F340EA03002946F1
:1093C00030BD21FA04F0294630BD94F0000F83F43B
:1093D000801306BF81F480110134013D4EE77FEA1E
:1093E000645C18BF7FEA655C29D094EA050F08BF6A
:1093F00090EA020F05D054EA000C04BF194610464B
:1094000030BD91EA030F1EBF0021002030BD5FEA8E
:10941000545C05D14000494128BF41F0004130BDB6
:1094200014F580043CBF01F5801130BD01F000450A
:1094300045F0FE4141F470014FF0000030BD7FEA7D
:10944000645C1ABF194610467FEA655C1CBF0B4678
:10945000024650EA013406BF52EA033591EA030F8F
:1094600041F4002130BD00BF90F0000F04BF002187
:10947000704730B54FF4806404F132044FF00005BA
:109480004FF0000150E700BF90F0000F04BF002133
:10949000704730B54FF4806404F1320410F0004599
:1094A00048BF40424FF000013EE700BF42004FEA94
:1094B000E2014FEA31014FEA02701FBF12F07F4311
:1094C00093F07F4F81F06051704732F07F4208BFC8
:1094D000704793F07F4F04BF41F40021704730B5CF
:1094E0004FF4607401F0004521F000411CE700BF1B
:1094F00050EA010208BF704730B54FF000050AE09E
:1095000050EA010208BF704730B511F0004502D59E
:10951000404261EB41014FF4806404F132045FEAA0
:10952000915C3FF4D8AE4FF003025FEADC0C18BF49
:1095300003325FEADC0C18BF033202EBDC02C2F13B
:10954000200300FA03FC20FA02F001FA03FE40EACD
:109550000E0021FA02F11444BDE600BF70B54FF0D1
:10956000FF0C4CF4E06C1CEA11541DBF1CEA1355AF
:1095700094EA0C0F95EA0C0F00F0DEF82C4481EA17
:10958000030621EA4C5123EA4C5350EA013518BF37
:1095900052EA033541F4801143F4801338D0A0FB24
:1095A00002CE4FF00005E1FB02E506F00042E0FBD1
:1095B00003E54FF00006E1FB03569CF0000F18BFD7
:1095C0004EF0010EA4F1FF04B6F5007F64F540747F
:1095D00004D25FEA4E0E6D4146EB060642EAC62112
:1095E00041EA55514FEAC52040EA5E504FEACE2E7F
:1095F000B4F1FD0C88BFBCF5E06F1ED8BEF1004F82
:1096000008BF5FEA500E50F1000041EB045170BDFD
:1096100006F0004646EA010140EA020081EA030141
:10962000B4EB5C04C2BFD4EB0C0541EA045170BD3D
:1096300041F480114FF0000E013C00F3AB8014F1B7
:10964000360FDEBF002001F0004170BDC4F1000400
:10965000203C35DA0C341BDC04F11404C4F1200581
:1096600000FA05F320FA04F001FA05F240EA0200DC
:1096700001F0004221F0004110EBD37021FA04F612
:1096800042EB06015EEA430E08BF20EAD37070BDCC
:10969000C4F10C04C4F1200500FA04F320FA05F02B
:1096A00001FA04F240EA020001F0004110EBD3702D
:1096B00041F100015EEA430E08BF20EAD37070BD9D
:1096C000C4F1200500FA05F24EEA020E20FA04F376
:1096D00001FA05F243EA020321FA04F001F0004125
:1096E00021FA04F220EA020000EBD3705EEA430E96
:1096F00008BF20EAD37070BD94F0000F0FD101F0C5
:109700000046400041EB010111F4801F08BF013CFD
:10971000F7D041EA060195F0000F18BF704703F03B
:109720000046520043EB030313F4801F08BF013DC2
:10973000F7D043EA0603704794EA0C0F0CEA13557E
:1097400018BF95EA0C0F0CD050EA410618BF52EA38
:109750004306D1D181EA030101F000414FF000003E
:1097600070BD50EA410606BF1046194652EA43064C
:1097700019D094EA0C0F02D150EA013613D195EAC0
:109780000C0F05D152EA03361CBF104619460AD108
:1097900081EA030101F0004141F0FE4141F4700112
:1097A0004FF0000070BD41F0FE4141F4780170BD02
:1097B00070B54FF0FF0C4CF4E06C1CEA11541DBF67
:1097C0001CEA135594EA0C0F95EA0C0F00F0A7F869
:1097D000A4EB050481EA030E52EA03354FEA013196
:1097E00000F088804FEA03334FF0805545EA1313A9
:1097F00043EA12634FEA022245EA111545EA106571
:109800004FEA00260EF000419D4208BF964244F107
:10981000FD0404F5407402D25B084FEA3202B61A26
:1098200065EB03055B084FEA32024FF480104FF4FA
:10983000002CB6EB020E75EB030E22BFB61A75466E
:1098400040EA0C005B084FEA3202B6EB020E75EB01
:10985000030E22BFB61A754640EA5C005B084FEA69
:109860003202B6EB020E75EB030E22BFB61A754636
:1098700040EA9C005B084FEA3202B6EB020E75EB41
:10988000030E22BFB61A754640EADC0055EA060E02
:1098900018D04FEA051545EA16754FEA06164FEA45
:1098A000C30343EA52734FEAC2025FEA1C1CC0D1F1
:1098B00011F4801F0BD141EA00014FF000004FF07E
:1098C000004CB6E711F4801F04BF01430020B4F13F
:1098D000FD0C88BFBCF5E06F3FF6AFAEB5EB030CF7
:1098E00004BFB6EB020C5FEA500C50F1000041EBF4
:1098F000045170BD0EF0004E4EEA113114EB5C04C1
:10990000C2BFD4EB0C0541EA045170BD41F4801193
:109910004FF0000E013C90E645EA060E8DE60CEA9B
:10992000135594EA0C0F08BF95EA0C0F3FF43BAFB8
:1099300094EA0C0F0AD150EA01347FF434AF95EA6F
:109940000C0F7FF425AF104619462CE795EA0C0F53
:1099500006D152EA03353FF4FDAE1046194622E720
:1099600050EA410618BF52EA43067FF4C5AE50EAFA
:1099700041047FF40DAF52EA43057FF4EBAE12E7EA
:109980004FF0FF3C06E000BF4FF0010C02E000BFCB
:109990004FF0010C4DF804CD4FEA410C7FEA6C5CAE
:1099A0004FEA430C18BF7FEA6C5C1BD001B050EA51
:1099B000410C0CBF52EA430C91EA030F02BF90EA3C
:1099C000020F0020704710F1000F91EA030F58BFFB
:1099D000994208BF90422CBFD8176FEAE37040F05D
:1099E000010070474FEA410C7FEA6C5C02D150EAFB
:1099F000013C07D14FEA430C7FEA6C5CD6D152EAB6
:109A0000033CD3D05DF8040B704700BF844610467A
:109A100062468C461946634600E000BF01B5FFF779
:109A2000B7FF002848BF10F1000F01BD4DF808ED49
:109A3000FFF7F4FF0CBF012000205DF808FB00BF1A
:109A40004DF808EDFFF7EAFF34BF012000205DF874
:109A500008FB00BF4DF808EDFFF7E0FF94BF0120C1
:109A600000205DF808FB00BF4DF808EDFFF7CEFFC2
:109A700094BF012000205DF808FB00BF4DF808ED01
:109A8000FFF7C4FF34BF012000205DF808FB00BFD2
:109A90004FEA410C7FEA6C5C02D150EA013C0AD1EA
:109AA0004FEA430C7FEA6C5C02D152EA033C02D1DC
:109AB0004FF0000070474FF0010070474FEA41023D
:109AC00012F5001215D211D56FF47873B3EB625210
:109AD00012D94FEAC12343F0004343EA505311F037
