:1040000000000420A95E0000955E0000955E00009F
:10401000955E0000955E0000955E000000000000C7
:10402000000000000000000000000000955E00009D
:10403000955E000000000000955E0000195F000022
:10404000955E0000955E0000955E0000955E0000A4
:10405000955E0000955E0000955E0000955E000094
:10406000955E0000955E0000955E0000955E000084
:10407000955E0000955E0000955E0000955E000074
:10408000955E0000955E0000955E0000955E000064
:10409000955E0000955E0000955E0000955E000054
:1040A000955E0000955E0000955E0000955E000044
:1040B000955E0000955E0000955E000021540000B2
:1040C000215400002154000021540000215400001C
:1040D000955E0000955E0000955E0000955E000014
:1040E000955E0000955E0000955E0000955E000004
:1040F00000000000955E0000E15D0000ED5D000045
:10410000F15D0000F55D0000955E0000955E000029
:10411000955E0000955E0000955E0000955E0000D3
:10412000955E0000955E000095510000A1510000D1
:10413000A5510000A9510000955E0000955E0000A9
:10414000955E0000955E0000955E0000955E0000A3
:10415000955E0000955E0000AD510000B951000071
:10416000BD510000C1510000955E0000955E000049
:10417000955E0000955E0000000000000000000059
:10418000995E00002B5F00002F5F0000335F00008E
:1041900000000000955E0000955E0000955E000046
:1041A000955E0000955E0000955E0000955E000043
:1041B000955E0000955E0000955E0000955E000033
:1041C000955E0000955E0000955E0000955E000023
:1041D000955E0000955E0000955E0000955E000013
:1041E000955E0000955E0000955E0000955E000003
:1041F000955E000000000000955E0000955E0000E6
:10420000955E0000955E0000955E0000955E0000E2
:10421000955E0000955E0000955E0000955E0000D2
:10422000955E0000955E0000955E0000955E0000C2
:10423000955E0000955E0000955E0000955E0000B2
:10424000955E0000955E0000955E0000955E0000A2
:10425000955E0000955E0000955E0000955E000092
:10426000955E000010B5054C237833B9044B13B1AB
:104270000448AFF300800123237010BDA00200208A
:10428000000000007CC5000008B5034B1BB10349CA
:104290000348AFF3008008BD00000000A402002026
:1042A0007CC500000020704770477047F8B54FF498
:1042B00016511948194E1A4F02F050FF01211948A2
:1042C00000F0F2F900241425386856F8241005FB94
:1042D00004000022013401F0E0F8072CF4D1124868
:1042E00000F0D2FD104800F063FD0F4800F056FDCD
:1042F0000D4800F049FD0C4800F0CAFC0A4800F0E7
:1043000005FD00220848114600F014FD0648BDE8EE
:10431000F84000F0FBBC00BF0411002004000020A6
:104320000C040020980400205C040020002270B5DA
:1043300011460B480B4D0A4E00F0FCFC0024286887
:10434000204401F0B8F82868204401F0ECF8143457
:1043500001460A22304602F0C9F88C2CEFD170BD1C
:104360005C0400200C0400202DE9F04F9A4D9B487E
:104370008DB0002400F09EFA2E1D2C6030191434EC
:1043800001F070F8B4F5A07FF8D1002402232822B0
:104390002721934885F8444100F05AFC914800F0E9
:1043A00063F9914B914A1C70254623469D54123364
:1043B000B3F5907FFAD18E4A8E498F488F4CDFF843
:1043C0009492DFF89482DFF894B203F0CFFF0C20D0
:1043D00002F012F88A49074602F0CAFD2C2002F0CA
:1043E0000BF80A230022394601950094064600F096
:1043F00011FC0C20C9F8006001F0FEFF814907465E
:1044000002F0B6FD282001F0F7FF7F4B0093002259
:1044100014233946064600F021FA0C20C8F8006043
:1044200001F0EAFF7949074602F0A2FD282001F0D9
:10443000E3FF774B009300221E233946754F064653
:1044400000F00CFA0C203E6001F0D6FF72490646DF
:1044500002F08EFD2C2001F0CFFF04F10C030122AD
:10446000314601926D4E009300221423824600F0E3
:10447000D1FB1C20C6F800A001F0BEFF04F1100320
:1044800001220021824600F003FB1C20CBF800A093
:1044900001F0B2FF083400943E2300222621824618
:1044A0005F4C00F025FA5F4BDBF80020C4F800A059
:1044B000C3E9002ADFF8A8A1D9F80020CAF8002033
:1044C000D8F80020CAF804203A68CAF808205649EB
:1044D0003268CAF80C2009A8079302F049FD2C2085
:1044E00001F08AFF079BDFF8F8800393022604237C
:1044F00009AA3146CDE901A600934C4FCDF81080B2
:1045000013462822814600F027FA09A8C7F8009030
:1045100002F0E9FC0C2001F06FFF3A49824602F0FC
:1045200027FD282001F068FF374B00930022142359
:104530005146DFF830A1814600F090F90C20CAF80E
:10454000009001F059FF3A49834602F011FD2C20FA
:1045500001F052FF374B01950022009359461E236C
:10456000814600F057FB344B344DC3F8009023686C
:104570002B60334CDAF80030324909A8C4E900391D
:1045800002F0F6FC2C2001F037FF01233146CDE983
:1045900001432822CDE90358009609AB814600F07B
:1045A000DBF9294B09A8C3F8009002F09CFC274BCB
:1045B0003A681A608C2001F021FF0546044600F19C
:1045C0008C062046143400F04DFFB442F9D1204B44
:1045D0001D600DB0BDE8F08F98040020BC020020E3
:1045E0005C04002010040020E0050020EC02002004
:1045F00000000020AB420000040600202C04002034
:104600001CB6000020B60000D802002024B600002E
:10461000D90200205404002029B600004C040020D8
:10462000E8020020800400202EB60000E4020020F2
:1046300033B600003C040020700400207404002005
:104640007804002037B60000E00200204804002073
:104650000C0400205804002050040020DC0200203C
:10466000880400206C04002010B5002318220446A2
:10467000037001210262037143718371C37103727C
:10468000C0E904338361C36080F824300363782277
:1046900045F261138170C170C26143630D20607087
:1046A00001F0ACFD204610BD002970B514BF0226F4
:1046B0000026051D242421462846324600F0EDFE42
:1046C00001342846192100F0F4FE342C05F11405BC
:1046D000F1D170BD807970478171704701234161CC
:1046E00003767047C36990F820201A7070470171F3
:1046F000704741717047000030B50C4685B00546E3
:1047000090F8212090F82210204600F013FB04239B
:104710000DEB03000022696A02F06CFC01A920463F
:1047200001F099FE01A802F0DEFB1B49204601F0D2
:1047300097FE6B79E3B195F820100A22204601F02C
:10474000E4FE1649204601F08BFE95F822102B79E5
:1047500095F821200831C9B2ABB16B79204673B905
:1047600000F0E8FAA521204601F07EFE05B030BD3C
:10477000EB690A221978204601F0C7FEE5E700F050
:10478000D9FADB21EFE7204600F0D4FA04492046AD
:1047900001F066FEEAE700BF3CB600003EB600004E
:1047A0003FB60000A0F10800FFF7A6BF38B50C46E1
:1047B00090F8221090F8212005460531C9B2204614
:1047C00000F0B8FA6B79E3B195F820100A22204680
:1047D00001F09BFE1349204601F042FE95F822109D
:1047E0002B7995F821200831C9B293B16B79204615
:1047F0005BB900F09FFAA5212046BDE8384001F0E2
:1048000033BEEB690A221978E1E700F093FADB2165
:10481000F2E7204600F08EFA20460349BDE8384012
:1048200001F01EBE3EB600003FB60000A0F1080039
:10483000FFF7BCBF437933B190F82030FF2B1CBF8A
:10484000013380F82030704743792BB190F8203045
:1048500013B1013B80F8203070470000F0B50B4EDB
:10486000059F4162002506F1080C383685710576F2
:10487000C0F800C0866080F8212080F82230C7612F
:104880003B7880F8203005714571F0BD44B60000DA
:1048900000EB41018888704700EB41018A80704736
:1048A0000144087D704701440A7570470430704721
:1048B00014307047034A02600022C0E90122C0E9B7
:1048C000032270478CB6000038B504460D46027BC3
:1048D000017C284600F02EFAA3691B782BB1217DBC
:1048E0002846BDE8384001F0BFBD2021F8E70000B0
:1048F00030B50375034D039B0560C0E90321836157
:1049000030BD00BFACB600002DE9F041044688463A
:104910001E460021012300F11C0517464375416026
:10492000C0E90311017581750A49284602F020FB90
:1049300084F8178027763146284602F038FB069B1C
:104940006360079B1B682360089BA3622046BDE849
:10495000F08100BFB8C20000F0B50D4693B0002151
:104960001F46012304464160C0E9031101754375E8
:10497000817511491C30164602F0FAFA1A9BE36061
:104980001B9B1B68A360394604A802F01FFB1C9BFD
:104990000293199B0193189B0093324604AB29465E
:1049A00007A8FFF7B1FF0EA802F09DFA04A802F0D5
:1049B0009AFA204613B0F0BDB8C20000F8B50D4613
:1049C000027B017C194F0646284600F0B3F91849CE
:1049D000284601F045FD10243946284601F040FDE7
:1049E000013CF9D13169327B0131C9B2284600F06E
:1049F000A1F9B3691B6803F00F02A24209D913F0B1
:104A0000030F0CBFDB21A521284601F02DFD013449
:104A1000EFE73169327B12312846C9B200F08AF9DA
:104A200028460449BDE8F84001F01ABD3FB6000031
:104A3000B4B60000B6B60000F8B50E460169027BB8
:104A4000124F01310546C9B2304600F073F9102407
:104A50003946304601F004FD013CF9D129692A7B31
:104A60000131C9B2304600F065F9AB691B6803F04B
:104A70000F02A24209D913F0030F0CBFDB21A521BD
:104A8000304601F0F1FC0134EFE7F8BD3FB600001D
:104A900030B5034D0560C0E90321836130BD00BF1F
:104AA000C0B60000D0E907321A60037E0BB143693B
:104AB00018477047017170474171704738B50C460F
:104AC000417B027B05460531C9B2204600F032F930
:104AD0006B79CBB1296A0A22204601F018FD1349EF
:104AE000204601F0BDFC697B2B792A7B0831C9B2D5
:104AF00093B16B7920465BB900F01CF9A5212046E3
:104B0000BDE8384001F0B0BCEB690A221968E3E760
:104B100000F010F9DB21F2E7204600F00BF9204607
:104B20000349BDE8384001F09BBC00BF3EB6000021
:104B30003FB60000A0F10800FFF7C0BF30B5054642
:104B40000C46027B417B85B0204600F0F3F82969D2
:104B50008B68042B0CD904230DEB0300002202F018
:104B600049FA01A9204601F076FC01A802F0BBF940
:104B70001949204601F074FC6B79CBB1296A0A22ED
:104B8000204601F0C4FC1549204601F069FC697B10
:104B90002B792A7B0831C9B2ABB16B79204673B946
:104BA00000F0C8F8A521204601F05EFC05B030BD3C
:104BB000EB690A221968204601F0A9FCE7E700F03A
:104BC000B9F8DB21EFE7204600F0B4F804492046AD
:104BD00001F046FCEAE700BF3CB600003EB600002C
:104BE0003FB60000A0F10800FFF7A8BF43792BB142
:104BF000D0E9083293423CBF0133036270474379E6
:104C000033B1036A826A934284BF03F1FF330362C4
:104C100070470000F0B50D4D059F027305F1080CBB
:104C2000383585606FF00045C0E9095543733B682E
:104C3000036200269DF818300676C0F800C00161B6
:104C4000C761067146718371F0BD00BFC8B6000030
:104C500070B50025034E4560066001724273837390
:104C6000C57370BD10B7000070B5084C05460E4600
:104C7000017A204600F08AF9E97B2046314300F0B2
:104C80009DF92046BDE8704000F0F4B960060020B0
:104C90000823C3730021FFF7E7BF38B50C4641F086
:104CA00004010546FFF7E0FF012001F07DF92846E9
:104CB00004F0FB01FFF7D8FF3220BDE8384001F0D7
:104CC00073B938B504460D46FFF7CEFF2946204696
:104CD000BDE83840FFF7E1BF70B50D4621F00F0188
:104CE000144611430646FFF7ECFF44EA051130462F
:104CF000C9B2BDE87040FFF7E4BF08B50122FFF775
:104D0000EBFF012008BD0022FFF7E6BF08B5012137
:104D1000FFF7F9FF4FF4FA60BDE8084001F044B92D
:104D200008B50221FFF7EFFF4FF4FA60BDE8084035
:104D300001F03AB97FB50E4B154606460C460FCB2F
:104D40000DF1100C0CE90F00337BAB423CBF03F1BB
:104D5000FF35EDB204AB03EB8505304655F8101C6A
:104D6000214461F07F01C9B2FFF7CDFF04B070BDEF
:104D700020B7000008B5817A41F00402827241F048
:104D80000C01FFF7C0FF08BD08B5817A01F0FD01F5
:104D9000817241F00801FFF7B6FF08BD08B5817ABE
:104DA00001F0FE01817241F00801FFF7ACFF08BD80
:104DB00008B5C17A01F0FE01C17241F00401FFF7AC
:104DC000A2FF08BD10B5012A88BF417A027388BFCF
:104DD00041F00801044688BF41722BB1012A02BF8D
:104DE000437A43F004034372322001F0EBF8E17B95
:104DF0002046FFF739FF4FF47A7001F0E3F83021D5
:104E00002046FFF75EFF41F2941001F0CDF830210B
:104E10002046FFF756FF41F2941001F0C5F830210B
:104E20002046FFF74EFF962001F0BEF820462021D5
:104E3000FFF747FF617A204641F02001FFF763FF4B
:104E40000423A3722046FFF795FF2046FFF75EFF7D
:104E500002232046E3720621FFF755FF2046BDE8F6
:104E60001040FFF75DBF000010B50446054800F094
:104E70006DF800236372A27B617B2046BDE8104081
:104E8000FFF7A0BF60060020FFF7EEBF2DE9F84353
:104E900080460D46174601EB02090C464C45A4EB33
:104EA00005060BD0D8F8003014F8011B1B684046EB
:104EB00098470028F2D13046BDE8F8833E46FAE72D
:104EC0007047D0F81C21D0F818319A421DBFD0F895
:104ED0001C31C018007E4FF0FF307047D0F81831F9
:104EE000D0F81C01181A48BF00F580707047000008
:104EF0002DE9F84300251F464FF47A730446C0E9B4
:104F000001534FF48076104B40F8183B8946904689
:104F10002946324603F053FFC4F818513246C4F80C
:104F20001C51294604F5907003F049FFC4F8205243
:104F3000C4F81090C4F8245284F814806775A575DD
:104F40002046BDE8F88300BF38B7000070B50546BD
:104F50000C4900690C4E01F0A9FD286901F0E9FB3C
:104F6000287D182404FB006393F9081001F0CCF9A4
:104F7000687D04FB006494F90810BDE8704001F0FE
:104F8000C3B900BFA086010048B800000023C0F8E4
:104F90002032C0F82432012380F82812837570472C
:104FA000D0F80031D0F804210133DBB29A421EBFA1
:104FB000D0F800218154C0F80031704708B5837DD6
:104FC0006BB1D0F82032D0F824220133DBB2934207
:104FD00005D000F59070FFF7E3FF012008BD002029
:104FE000FCE7D0F80421D0F800319A421FBFD0F876
:104FF0000431C25CD0F8043101331DBFDBB2C0F80C
:10500000043110464FF0FF307047F8B500220446D7
:105010000D46827590F82812006901F0BDFBD0B1F1
:1050200004F59077D4F82002D4F82462861B48BF98
:1050300006F58076AEB138462669FFF7D2FFC1B2D9
:10504000304601F0D4FB0028ECD12069032101F0A7
:1050500091FB032004E02069032101F08BFB022077
:10506000F8BD2DB12069032101F084FB3046F7E73C
:105070002846F5E70121FFF7C8BF08B51830FFF74C
:10508000B0FF08BD70B50446006901F0CEFB98B1D1
:10509000206901F0D7FB80B1206901F064FB032196
:1050A000206901F067FBD4F83052002D33D1002382
:1050B000C4F81831C4F81C3170BD206901F0CCFB74
:1050C00040B1206901F0C3FB20B1206901F0C9FBA8
:1050D0000028E1D0206901F0BFFB10BB206901F07E
:1050E000ACFB0028E8D0206901F0BBFB002834D0DD
:1050F000D4F82032D4F824229B1A48BF03F58073D9
:105100004BB304F59070FFF76CFFC1B2206901F05A
:105110007FFBA075D0E7236820461B699847A84706
:10512000C5E7206901F01FFB2069032101F022FB84
:10513000206901F096FB0028BED00023C4F820327D
:10514000C4F824320123A375D4F82C32002BB3D039
:10515000BDE870401847FF21D8E7D4F81831D4F8DB
:105160001C2120690133DBB2934207D101F0F4FA2C
:1051700020690321BDE8704001F0FCBA01F076FB24
:10518000014604F11800FFF70BFF206901F0EBFA6C
:10519000EEE700000148FFF775BF00BF6006002082
:1051A000FFF7F8BFFFF7F6BFFFF7F4BF0148FFF7BF
:1051B00069BF00BF94080020FFF7F8BFFFF7F6BFF4
:1051C000FFF7F4BF10B53F233E2206490648FFF71C
:1051D0008FFE1823192205490548BDE81040FFF746
:1051E00087BE00BFC010002060060020E410002031
:1051F00094080020F8B5044610300D4617461E46A8
:1052000000F0CCF804F1240000F0C8F80020C4E954
:105210000E0084F8400060722DB90A4B0A4A0B4810
:10522000222103F03DFD9DF8183063719DF81C307C
:10523000E3719DF8203025602771A6712372204606
:10524000F8BD00BF54B70000C9B7000065B7000043
:105250001FB5044604AB006803E9060001F02CFA10
:105260009DF80D30227AE17900932068002301F047
:10527000F9FB2068029A9DF80C1001F03BFA2068B7
:1052800004B0BDE8104001F00DBA000017B4837AF5
:105290006C4684E8060043B19A070DD5EFF31083FE
:1052A000B3FA83F35B09C37272B694E8060003B0E5
:1052B0005DF8044BFFF7CCBFDB0742BF014B82898F
:1052C000DA60F2E700280040837A53B19A0703D5E9
:1052D000C37A33B162B67047DB0742BF014B8289A4
:1052E0001A61704700280040006801F0F0B9000022
:1052F00030B50F4B0F4A1A6085B000245C711C71E9
:10530000032542230093CDE90145412340220A4968
:105310000A48FFF76FFF52230093CDE9014551235F
:10532000502207490748FFF765FF05B030BD00BFB1
:10533000500B002000093D00F0100020C80A00209A
:10534000B41000200C0B0020084B186840B9EFF394
:105350001082074942B972B6BFF35F8F01220A700B
:105360001A6801321A6070470870F9E75C0B002078
:10537000580B0020074B1A6852B11A68013A1A609C
:105380001B682BB9044B1B7813B1BFF35F8F62B658
:10539000704700BF5C0B0020580B0020FF220270FA
:1053A0000321002242708270C270027141718260DA
:1053B000C26002617047000010B4184B03EB01118A
:1053C00091F84E10C9B211F001040CD0017803EB32
:1053D0000113012183F84E10042343708368D3B175
:1053E0005DF8044B184711F0020F08D0017803EB69
:1053F0000113022183F84E10C3684470EFE7490798
:1054000009D5017803EB0113042183F84E1007231B
:1054100043700369E3E75DF8044B704700A0004167
:1054200008B5FFF791FF074B198C074B01F01F01DF
:1054300053F8210008B1FFF7BFFFBDE80840FFF7B0
:1054400099BF00BF00A00041600B00200846114634
:1054500000F0D4BE08B5C07A00F03EFF003018BF9F
:10546000012008BD034A026000210A22C0E901129E
:10547000704700BF28B80000002310B5837203688E
:10548000C1721B680446984718B1A37A43F003031E
:10549000A37200F057FD606010BD38B50368044684
:1054A0000D465B68984729462046BDE83840FFF71F
:1054B000E3BF0181704738B5837A23F00403837218
:1054C000036804461B689847A37AC3F340039842D5
:1054D00005460AD000F036FDA37A606083F002032F
:1054E000A372A07AC0F3800038BD00F02BFD636882
:1054F000C01A23899842F4D3A37A03F001039D4292
:10550000EFD000F01FFDA37A606083F0010343F049
:105510000403A37200F016FDE368C01A206100F0D6
:1055200011FDE060DDE7807A00F0010070470000C7
:10553000074B02210022196106495A719A719A7229
:105540001A7383F83020DA63996383F84120704737
:10555000E00B002038B8000001460148FFF7C4BE48
:105560000C0B0020FF210148FFF7BEBE0C0B0020F2
:1055700008B50121007900F085FE054B1A7832B19B
:1055800000221A700348BDE80840FFF79DBE08BD21
:10559000440C00200C0B002010B5094B1A7804466F
:1055A0003AB901221A70074B074893E80600FFF743
:1055B0006DFE20790021BDE8104000F063BE00BF01
:1055C000440C0020480C00200C0B002038B58379D7
:1055D000044673B140F2012523895A1CAB42228153
:1055E00002D8FFF7BFFFF7E72046FFF7C1FF002310
:1055F000A37138BD38B50C4600F0A4FC0546FFF792
:10560000B1FFFF2806D000F09DFC401BA042F6D35E
:10561000002038BD0120FCE7F8B505460E461746C8
:10562000FFF7D4FF2846FFF7B7FF4FF496712846DF
:10563000FFF7E0FF46F04000FFF78EFF182427FA3F
:1056400004F0C0B2083CFFF787FF14F1080FF6D151
:1056500086B1082E14BFFF208720FFF77DFF0024AE
:10566000FFF780FF0306E87203D50134B4F5807FAD
:10567000F6D1F8BD9520F0E738B5044600F062FC9D
:105680000546FFF76FFFFF28E0720CD100F05AFCCF
:10569000401BB0F5967FF4D90F2320466371FFF7C6
:1056A00067FF002038BDFE2801D00D23F5E701205B
:1056B000F8E7F8B51D461344B3F5007F04461646D7
:1056C00015DC83792BB103688B4202D103899342A5
:1056D0001AD9237B2160032B18BF49020A462046B2
:1056E0001121FFF799FF074630B10323637120466C
:1056F000FFF73EFF0020F8BD2046FFF7BDFF002862
:10570000F5D001232781A3712389B34209D3069ED3
:10571000013E7719B7420AD0FFF724FF06F8010FC0
:10572000F8E7FFF71FFF238901332381ECE7238983
:105730001D44A37AADB2258113B1B5F5007F02D324
:105740002046FFF743FF0120D5E707B54FF400736C
:1057500000920022FFF7ADFF03B05DF804FB70B5C7
:10576000054608461446FFF7F7FE661E04F2FF14CE
:1057700016F8010FFFF7F0FEA642F9D1FF20FFF760
:10578000EBFEFF20FFF7E8FEFFF7ECFEE87200F00B
:105790001F00052806D0112328466B71FFF7E8FE8D
:1057A000002070BD0120FCE7F8B5174604461E46F0
:1057B0000A4631B9122363712046FFF7D9FE002053
:1057C0002AE0037B032B18BF4A021821FFF724FFAE
:1057D000054608B10423EEE73A46FE212046FFF7CE
:1057E000BEFF0028E8D09EB14FF416712046FFF7A7
:1057F00001FF08B91523DEE72A460D212046FFF7F1
:105800000BFF08B11423D6E7FFF7ACFE0028F9D14F
:105810002046FFF7ADFE0120F8BD38B50546FFF77D
:10582000BBFEFFF79FFE04462846FFF7A1FEB4F13A
:10583000FF0018BF012038BD034B044A1A60002244
:105840005A711A71704700BF480C002000093D00D2
:1058500010B500F10C0204460121406A00F06AFA1A
:1058600060B1236A2BB9237AE268226263F07F0376
:105870002372237A43F020032372012010BD00001D
:1058800010B50446406900F0BBF918B1237E024808
:1058900000EB431010BD00BF580C0020F8B5437A50
:1058A00004460E460BB90020F8BDC2698A42FAD3FD
:1058B000022B02D126610120F6E709B9E160F9E780
:1058C000436A01691D7C4B1E05F10902751ED34018
:1058D000D540AB4200D871B9236AE36004F10C07EC
:1058E000002DE7D03A46E168606A00F0ADF9013D6D
:1058F0000028F5D1D7E7ED1AF0E7000070B5437A3C
:1059000004460E4643B390F90830002B1ADA012101
:10591000FFF7B6FF0546F8B1637A012B9CBFE36938
:10592000C361238C4383638C83820C4B1B682BB134
:1059300000F11601183098472B8B6B82237A03F005
:105940007F0323721EB9237A23F01003237230469B
:10595000BDE8704000F030B9002070BD500C002050
:1059600070B5437A012B054601D0002070BD037A43
:105970009A07FAD55B0712D4154B1868FFF74DFF4D
:105980000028F2D12B7A13F0200411D001462846CA
:10599000FFF7B4FF2B7A23F020032B72E5E7C169F0
:1059A00003698B42E8D0FFF779FF0028E4D1DCE7F8
:1059B000084A126812B100F0E9F8D6E72869C0F386
:1059C000080043F01003C0F500702B7280B2CDE7E1
:1059D0005C0E0020580E00202DE9F74F437A012B72
:1059E0000446894616462DD1077AB9072AD57A0783
:1059F00020D487F01007B046C7F300172569B8F127
:105A0000000F00F08D80606A90F804B00BF1FF3B4E
:105A10000BEA552B1BF0FF0BC5F3080517D1B5B9E1
:105A2000E168002940D1236A83B92046FFF710FFBF
:105A300068B907E0C16903699942DAD0FFF72EFF20
:105A40000028D6D10123636000207BE0E360626A16
:105A5000E368117C5269C5F5007A1FFA8AFAC245DB
:105A6000A3F1020328BFC2468B401344BAF5007F5E
:105A70009B442CD1394B3A481A6800685A4504BFF8
:105A80004FF0FF321A6059463B464A46FFF78CFEFC
:105A90000028D7D009F500792369A8EB0A085344F8
:105AA0001FFA88F82361A9E701AA00F0CDF80028C1
:105AB00048D0636A019A93F820002A4B4FF6F87198
:105AC000102808BF0B469A42AFD2E260BFE7EDB99B
:105AD0002269E3699A4219D3012000F06DF8002889
:105AE000B0D01E4B204AC3F800B0137843F0010336
:105AF00013701E4B1D4405EB0A002B464A46834299
:105B00000BD012F8011B03F8011BF8E701215846DE
:105B100000F076F80028ECD194E75D1BA944BBE7C0
:105B2000E269237AAA4204D2E56163F07F0323721B
:105B300004E00F4A12680AB1002EF6D1237A1B073F
:105B400003D4304603B0BDE8F08F01212046FFF7B3
:105B5000D5FE00283FF476AFF3E700BF2000002019
:105B60005C0E0020F8FFFF0F540C0020580C0020A2
:105B7000500C002007B502AB012203F8011D1946A5
:105B8000FFF72AFF03B05DF804FB000010B5074CD7
:105B90002168034639B10648064A0068FFF704FE4B
:105BA00010B100232360012010BD00BF580E00205B
:105BB0005C0E0020580C002038B50D4D2B780446A3
:105BC0000BB9012009E003460A490B480B4A096852
:105BD0000068FFF7E9FD08B9002038BD002CF0D0BF
:105BE0002046FFF7D3FF0028F6D000232B70E8E70C
:105BF000540C0020200000205C0E0020580C0020D7
:105C000070B50D4E3368834205460C460ED0012018
:105C1000FFF7D2FF08B9002070BD084B084A18688A
:105C20002946FFF792FD0028F5D03560054B1A781C
:105C300014431C700120EFE7200000205C0E0020C0
:105C4000580C0020540C0020C36801338B4270B5FF
:105C500005460C46164601D2002070BD90F8202063
:105C6000C369102A0CBF080AC80918440D4B1B68E9
:105C700083420AD195F82030102B0B4B0BD1E4B2A4
:105C800033F8143033600120E7E70021FFF7B8FF55
:105C90000028EFD1E0E704F07F0453F8243023F02C
:105CA0007043EFE720000020580C00200129F8B5D0
:105CB00005460C46174601D80020F8BDC3680133DD
:105CC0008B42F9D390F82030C669102B0CBF0B0A19
:105CD000CB091E44134B1B689E4217D195F8203008
:105CE000102B114B19D1E4B223F814700F4A13781A
:105CF00043F0010313702B7E012B82BFAB68F618B3
:105D00000B4B4FF0010088BF1E60D6E700213046E4
:105D1000FFF776FF0028E1D1CEE704F07F0443F8D7
:105D20002470E3E720000020580C0020540C0020D1
:105D3000580E00202DE9F74F146806468B46904612
:105D40003CB301340027F368254603F1010A4FF004
:105D50000009F3684B4517D9554588BF022501AAAC
:105D60002946304688BF2C46FFF76EFF60B1019A86
:105D70006B1C9AB91A1B5A4511D16FF07042294613
:105D80003046FFF793FF70B90027384603B0BDE8EF
:105D9000F08F4B1E5F4204685F41D4E71C4609F157
:105DA00001091D46D5E7AC4208D205F1FF392A4664
:105DB00049463046FFF77AFF4D46E4E7D8F8001031
:105DC00021B9C8F8004047B90127DEE7224630462E
:105DD000FFF76CFF0028F4D1D6E701343460D4E734
:105DE000014800F0A3BF00BF600E0020FFF7F8BF1E
:105DF000FFF7F6BFFFF7F4BF13B5164C1649204660
:105E000000F0BAFB1549164800F0B6FB15491648D4
:105E100000F0B2FB1549164800F0AEFB4FF086418A
:105E2000144800F0A9FB1449144800F0A5FB1449DC
:105E3000144800F0A1FB1449144800F09DFB012315
:105E40000022CDE900322146114800F00DFF02B0DA
:105E500010BD00BF9C100020003000400034004006
:105E6000A810002000200141B41000200040014192
:105E7000C0100020CC10002000040043D8100020E7
:105E800000080043E4100020000C0043F010002044
:105E9000600E0020FEE70000024B1B6803B11847AC
:105EA000704700BFFC10002008B51549154B8B4208
:105EB0000FD1154AD2F8883043F47003C2F8883005
:105EC000BFF34F8FBFF36F8F00F09CF800F074FAB0
:105ED000FEE70E4A9A42ECD08B42104605D39A4216
:105EE000E7D00B4B0B4A002106E0006843F8040B97
:105EF0000432F1E743F8041B9342FBD3D9E700BF18
:105F0000A00200200000002000ED00E080C500009D
:105F1000A0020020F816002008B500F070F818B9AB
:105F2000BDE8084000F062B808BDFFF7B5BFFFF755
:105F3000B3BFFFF7B1BF0000014B1860704700BF4F
:105F4000FC100020014B1868704700BF00110020B2
:105F5000124A1349F0B5134D97684B682E68C3F386
:105F6000806390684C68D5F800C0C4F38064A34295
:105F70000FD166450DD187420BD3526842F22220E1
:105F8000D21B504333444FF47A72534303EB105007
:105F9000F0BD664623460746E3E700BF10E000E099
:105FA00000ED00E00011002040B178235843044B7D
:105FB000596814385A68521A9042FBD8704700BF8B
:105FC000001000E038B5044670B1FFF7C1FF054688
:105FD00000F014F8FFF7BCFF401BB0F57A7FF7D351
:105FE000013C05F57A75F5D138BD0000024A136809
:105FF0000133136000F09CBA0011002070470020AC
:10600000704700006E4A13889BB213806D4B42F2BA
:106010000E029A82DA68D107FCD56B4B1A7842F0EF
:1060200001021A705A68D207FCD440F20512DA62F3
:106030005A689006FCD44FF4827263491A624A6827
:1060400012F00402FBD1614B1A77614A9A6293F80D
:106050002C2012F01002FAD183F820205B4B1A4654
:1060600093F82C104907FBD4197F41F002011977EE
:1060700092F82C309807FBD4536A5362534B1A465C
:1060800093F82C100907FBD4982183F8201013698A
:10609000D805FCD54C4B4F4A5A635A681106FCD4BC
:1060A0004522C3F88420494B77225A63DA6B5207A2
:1060B000FCD44FF400629A63022283F83020434BF1
:1060C0001A6C9007FCD51A6CD107F9D53E4A4521C8
:1060D000C2F8881063229A643C4B1A6D5207FCD4B4
:1060E0004FF40062DA64022283F84420374B5A6D81
:1060F0009007FCD55A6DD107F9D5334B40F20632E3
:106100005A625A681207FCD44FF442729A625A6873
:10611000D006FCD4304A1A632B4B1A4659684906FC
:10612000FCD440F207311962536813F00403FBD129
:106130002A4901224A7101F58051886963F382007E
:10614000886172B6264B9A6062B6264AD36843F0DD
:106150008073D360244A136843F0010313604FF047
:106160008013224A1B6803F003019184C3F30222C7
:10617000C3F34211120142EA0122C3F382010A432E
:106180001B49A1F84820C3F38252C3F3C241120154
:1061900042EA0122C3F302431343164AA2F84830ED
:1061A000154B1A6802F01F01C2F3441343EA81132E
:1061B000C2F3822243EA02334FF0824213857047D2
:1061C0000040004100140040001C0040001000404E
:1061D000000001040601300006030400000800402E
:1061E00000600041F0ED00E0001000E000200042FF
:1061F000001C00430020004384008000182310B5D9
:106200001F4C5843221892F90830013313D05268BA
:1062100023560120904003290DD8DFE801F0022524
:106220000D19DB0103F1824303F500431A440221F7
:1062300082F84010586010BDDB0103F1824303F582
:1062400000431A44062182F8401058609861F2E732
:10625000DB0103F1824303F500431A44062182F86F
:10626000401058605861E6E7DB0103F1824303F513
:1062700000431A44022182F840109860DBE700BF17
:1062800048B80000182330B5114D58432B1893F926
:106290000820013219D05C682B56D80100F18243E6
:1062A00003F5004301229D68A240154209D1234411
:1062B0000D1C93F8404018BF012565F3820483F854
:1062C0004040044B034409B95A6130BD9A61FCE770
:1062D00048B800000080004118230A4958430A18B2
:1062E00092F9083001330BD00B56DB0103F18243E6
:1062F00003F50043186A5368D84000F00100704766
:106300000020704748B8000038B51822274D424396
:10631000AC1894F90830B3F1FF3F44D00D2905DCE7
:10632000002915DA4B1C09D0002008E01129FBDCFC
:106330000F2905D10021FFF761FFF5E7084638BDB9
:10634000102901D10221F6E71129EDD10121F2E74F
:10635000AD566468164BED0162082B4414F0010041
:10636000C9B21A4410D092F8300000F00F0040EA91
:1063700001112344C9B282F8301093F8402042F052
:10638000410283F84020CFE792F8305005F0F00545
:106390002344294382F8301093F8402042F0410210
:1063A00083F84020CBE71846C9E700BF48B8000093
:1063B000008000417047000008B501F067FE02F060
:1063C000ADFCFFF7F7FF0120FFF7FCFD0848094C83
:1063D00001F0E0F8064801F06FF9FDF767FFFDF7FF
:1063E000A5FFFFF70BFE002CF9D0AFF30080F6E716
:1063F000201100200000000002F0B4BC02F0B2BC8A
:1064000002F0B8BC2DE9F04106460D4601EB02084A
:106410000C464445A4EB050707D0336814F8011B6C
:106420001B68304698470028F3D13846BDE8F08114
:1064300070B5044608460D4603F02CFB236802465F
:10644000294620465B68BDE87040184709B1FFF750
:10645000EFBF0846704703688A685B680968184799
:1064600008B5FFF7F3FF08BD03681B68184770B550
:106470008AB00D460AA9002301F8043D012A98BFFD
:106480000A22B5FBF2F402FB1456F3B2092E94BFB4
:1064900030333733DBB2254601F8013D002CF0D113
:1064A000FFF7D4FF0AB070BD2DE9F04107460E4654
:1064B00015462AB90368C9B21B68BDE8F041184700
:1064C0000A2A05D1002905DBBDE8F041FFF7CFBF5F
:1064D000D2B2F9E72D21FFF7C7FF2A4604467142E1
:1064E0003846FFF7C4FF2044BDE8F081FFF7DCBF6A
:1064F00010B42AB903685DF8044B1B68C9B2184789
:10650000D2B25DF8044BFFF7B2BFFFF7F1BFFFF760
:10651000EFBF0000014B1860704700BF240000204F
:10652000024B4FF0FF321A60704700BF240000207A
:106530000C4A1368591C13D0013B136083B972B61F
:10654000094B0A4A1A60BFF34F8F0949094BCA68C1
:1065500002F4E0621343CB60BFF34F8F00BFFDE74F
:10656000704700BF24000020FCFF0320EF6916F0F5
:1065700000ED00E00400FA0501220160027170479D
:1065800070B506683568022B45EA827214BF4FF079
:106590008074002444EA0204346000689DF81040CE
:1065A000426801F0070141EA841114BF5B03002334
:1065B0000A431A43426070BD10B5036812051C6897
:1065C00002F440120904224301F440310A431A60E4
:1065D0000268536843F44033536010BD0268136887
:1065E00043F00103136003681A68D107FCD4DA6929
:1065F000D207F9D470470268136843F002031360AE
:106600000268D3699B07FCD4704703681A7E12F0B6
:10661000010F03D11A7E12F0020FFAE770470368E8
:1066200000225A8370470368187EC0F380007047C9
:106630000368187EC00970470268137E43F0800328
:10664000137670470368588BC0F3400070470268A8
:10665000538B43F00203538370470368187E00F0A6
:10666000010070470368986AC0B2704703681A7ED9
:10667000D207FCD5996201207047036801229A7500
:106680007047036801221A7570470268136843F067
:106690000103136003681A68D107FCD4DA69D207D2
:1066A000F9D470470268136843F00203136002686C
:1066B000D3699B07FCD470470268D369C3F34003D6
:1066C000002BFAD1116863F3410111607047036830
:1066D000996203681A7E5207FCD5986AC0B2704767
:1066E00049008068B0FBF1F080B208B1013880B297
:1066F000C0B2704770B50468C1F3400601F00101F3
:106700002568090741EA467129432160114603685B
:10671000FFF7E6FF187370BD0268136843F00103CA
:10672000136003681A68D107FCD4DA69D207F9D478
:1067300070470268136843F0020313600368DA6964
:106740009207FCD45A8B012161F305125A83026827
:10675000D3695B07FCD4704703681A685A6842F42F
:1067600080225A60704703681A685A686FF3924231
:106770005A60704703681A68C2F38202052A5A6891
:1067800001F0030161F311425A6004D10268D36938
:106790005B07FCD47047704710B542EA41010368BB
:1067A000C9B25C8BC4F30114012C04D05C8BC4F31C
:1067B0000114022CF5D15C6A61F30A045C6203687F
:1067C00042B91A7ED107FCD5588BC0F3800080F007
:1067D00001000BE0187EC0F340000028F4D11A7EBF
:1067E000D207F7D55A6842F440325A6010BD0368A8
:1067F00099620368187E10F0010003D15A8BD2070A
:10680000F8D57047588BC0F3800080F001007047C6
:10681000036899620368187EC0F3800020B1588B2A
:10682000C0F3800080F00100704703681868C0F36F
:106830008200031F5842584170470368187EC0F316
:10684000800070470368187E00F0010070470368FD
:10685000588BC0F3001070470368187EC0F34000E7
:1068600070470368588BC0F3C000704703681A680C
:10687000C2F38202052A02D11A7E9207FCD5986AD9
:10688000C0B27047074A03680020010189588B4253
:1068900001D140B2704701300828F6D14FF0FF30E7
:1068A000704700BF48C10000052A30B52BD0284CE6
:1068B00009010C44B3B12179264C203154F8215000
:1068C0006FF3861544F8215054F821506D06FBD41F
:1068D00063B302710AB3012A2ED1412344F8213057
:1068E0001D4B0AE06179E7E7032A1A4C0CD14322D9
:1068F00044F8212013B14FF400438360154B53F843
:1069000021205206FBD530BD042AF7D1442244F899
:106910002120002BF2D0114BEFE7402344F8213027
:106920000F4BEAE7402344F82130E7E7002AF9D08B
:10693000012A08D14123F6E7022AD5D1422344F89F
:106940002130084BD9E7022ACED14223EBE700BF22
:1069500048C10000001C0040006CDC02001BB700B6
:10696000000E270700E1F5052DE9F0410446FFF789
:1069700089FF051E3BDB1F4BDFF87CE0DFF87C80E6
:1069800029B203EB0111043100204FF0010CC027A4
:1069900031F9023F002B4FEA531203F01F064FEA72
:1069A0008202BCBF03F00F03043B02F1604202F518
:1069B0006142B4BF4344734400F101000CFA06F68F
:1069C000C0B2C2F88061B4BF1F7683F80073042898
:1069D0001660DDD12279294601232046FFF764FFA6
:1069E000227929460023BDE8F041FFF75DBFBDE8ED
:1069F000F08100BF48C1000000E100E000ED00E0D0
:106A00002DE9F04104460F4690461D46FFF7ACFFC6
:106A10002046FFF7E3FDB8004FEA483326689BB2F3
:106A200000F01C001843306023688422012F9A75FF
:106A300014D12268B8F1010F91890CBF10230823EB
:106A40005D43074BB3FBF5F363F34F31918122684C
:106A50009189C3F3CC0363F30C019181BDE8F0810C
:106A60000060E316F8B505460F4614461E46FFF7CC
:106A70000CFEFFF779FF24059DF818102A6804F42E
:106A8000401444EA8174390444F00C0401F44031A8
:106A9000214311602B6806F0070646F400365E605D
:106AA0002A68D3695B07FCD4F8BD000038B50546F9
:106AB0000C46FFF759FF2846FFF72EFE2B681422DD
:106AC0001A602A68054BD1686400B3FBF4F3013BFC
:106AD000DBB263F30701D16038BD00BF006CDC029C
:106AE00001207047036840F213421B6A1847D0F830
:106AF0001821D0F814319A421DBFD0F81831C018AF
:106B0000007D4FF0FF30704710B504460069FFF775
:106B100065FD0023C4F81431C4F81831C4F81C32E0
:106B2000C4F8203210BD01F0F001A1F13003584249
:106B30005841704701F47061B1F5007F08D0B1F59C
:106B4000407F07D0B1F5807F0CBF05200020704743
:106B5000062070470720704701F00F01012904D07B
:106B600002290CBF0120022070470020704700005E
:106B70002DE9F3410446334D90F82402182606FB14
:106B80000053884693F908101746FFF7BDFB94F8A9
:106B9000250206FB005393F90810FFF7B5FB94F8A4
:106BA0002732022B09D194F83802FF2805D006FBC2
:106BB000005696F90810FFF7A7FB94F82802FF2863
:106BC00017D00121FFF71AFB94F82822182353430A
:106BD000E918EA561C4B4968D2011344C4F82C3218
:106BE0001A4B134401228A40C4F83032C4F83422CC
:106BF0001A600122434611462069FFF701FF39461A
:106C00002046FFF797FF394605462046FFF7A4FFC9
:106C1000394602462046FFF786FF29461346009074
:106C200001222069FFF7ACFC206994F8262294F831
:106C30002712FFF7C1FC206902B0BDE8F041FFF761
:106C4000DABC00BF48B80000188000411480004141
:106C500008B54FF48072002102F0B1F80022C0F8AC
:106C60000021C0F8042108BDF8B516461D460022D3
:106C70004FF47A73C0E901230F4B044640F8143BEC
:106C80000F46FFF7E5FF04F58E70FFF7E1FF9DF873
:106C9000183084F826329DF81C3084F82732FF2300
:106CA000276184F8246284F8255284F8283284F815
:106CB00038322046F8BD00BFD0C10000D0F8003106
:106CC000D0F80401181A48BF00F58070704738B535
:106CD000044600F58E752846FFF7F0FF0028FAD12C
:106CE0002069BDE83840FFF790BC08B51430FFF7C5
:106CF000E5FF08BDD0F80021D0F804319A42A5BFC5
:106D0000D0F80031D0F80421D0F80431C3F1FF00ED
:106D1000AFBF8018D0F80001181A00F1FF3070479B
:106D200008B500F58E70FFF7E5FF08BD10B5044605
:106D30000069FFF787FC28B12069FFF793FC206901
:106D4000FFF785FC2069FFF76EFCF8B12069FFF7BB
:106D500089FCD4F81431D4F818210133DBB2934202
:106D60001FBFD4F8142112191075C4F8143194F807
:106D70002832FF2B0AD004F11400FFF7BBFF0928CB
:106D8000DEBFD4F82C32D4F834221A602069FFF721
:106D900064FCE0B104F58E70FFF790FF18B3D4F8EF
:106DA0002022D4F81C3220699A421BBFD4F820322A
:106DB0001B194FF0FF3193F81C111FBFD4F820327C
:106DC0000133DBB2C4F82032C9B2FFF74FFC2069AF
:106DD000FFF72EFC58B12069FFF72EFC2069BDE8B3
:106DE0001040FFF71CBC2069FFF74BFCEFE710BD1C
:106DF000F8B5074600690C46FFF72FFC00283DD187
:106E0000244D254ED7F81C32D7F820220133DBB2AF
:106E100093421ED1EFF31083DB0711D46B68C3F3E9
:106E20000803002BEED0103B1BB2002BBDBF03F0BC
:106E30000F03043B5B199B19B4BF1B7E93F800330F
:106E40003869FFF70AFC0028DCD03846FFF76EFFF0
:106E5000D8E7D7F81C32D7F820220133DBB29342AF
:106E60001EBFD7F81C22D21982F81C41386918BFFE
:106E7000C7F81C32FFF701FC0120F8BD07F58E7042
:106E8000FFF71CFF0028BBD121463869FFF7EEFB56
:106E9000F2E700BF00ED00E000E100E038B5D0F817
:106EA0001821D0F814319A421BBFD0F818311B18A2
:106EB0004FF0FF351D7D1FBFD0F818310133DBB215
:106EC000C0F8183190F82832FF2B044609D014304E
:106ED000FFF710FF0A28C2BFD4F83032D4F83422AA
:106EE0001A60284638BD10B50446006801F042FF1C
:106EF000204610BD10B50446006808B101F03AFF05
:106F000000232360C4E9013310BD38B504460D46A3
:106F10000068013102F09EFD10B1C4E900050120B6
:106F200038BD036810B5044623B143688B4201D3D2
:106F3000012010BD2046FFF7E8FF0028F9D0A36824
:106F4000002BF5D122681370F2E770B50E4611469A
:106F500004461546FFF7E5FF20B92046FFF7CAFFB4
:106F6000204670BDA5603146206802F08BFDF7E732
:106F700038B500230446C0E9003383600D4639B1BB
:106F8000084602F087FD294602462046FFF7DDFF4E
:106F9000204638BD38B5054608460C4602F07AFD55
:106FA000214602462846BDE83840FFF7CEBF88425A
:106FB00010B50B46044604D0096821B19A68FFF762
:106FC000C4FF204610BDFFF795FFFAE710B5002378
:106FD0000446C0E900338360FFF7E9FF204610BD97
:106FE00010B5044619B1FFF7D5FF204610BDFFF7D5
:106FF00081FFFAE72DE9F0419A420E461F460F49FC
:1070000088BF13461546804684BF3D461F46FFF79E
:10701000AFFFB468AC420DD9BC4228BF3C463368D0
:1070200000221F5D1A55316840462944FFF7D8FFFA
:1070300033681F554046BDE8F08100BFB8C200006C
:107040003F20704713B502AB026803F8011D546876
:1070500019460122A04702B010BD0221006900F0CC
:1070600003BC0321006900F013BC000010B51346F7
:10707000074AD27904461AB901236360002010BD83
:107080000A460069032100F0F5FC0028F4D0F6E779
:107090002C00002010B5054C2368591C04D103684E
:1070A0005B69984703462060184610BD78000020B1
:1070B000064A1368591C03D10221006900F0CABCBA
:1070C0004FF0FF3111601846704700BF7800002074
:1070D00003780349023303704222024800F06CBD7A
:1070E000340000202011002010B502784378A12A36
:1070F00008D1212B1BD107221549164800F05CFD51
:10710000012010BD212A12D1202B12D107221049B3
:10711000104800F0FBFB0E4B1A68B2F5966F0ED1CB
:10712000D87910F001040AD1FA20FFF7F3F9002012
:10713000E7E7222B06D1064B8278DA71EBE7FFF7FF
:10714000EFF9F4E7232BF2D1034B42881A60EEE704
:107150002C00002020110020280000207047000093
:10716000054B00224FF47A71C3E9012103491960EC
:10717000034919611A7670470411002004C2000007
:1071800020110020704710B501F1080400F00F0233
:10719000D3B2092ACCBF3733303304F8013DA142C2
:1071A0004FEA1010F2D110BD10B50446806901F00D
:1071B000E1FDA06A01F0DEFD204610BD10B50446D9
:1071C000FFF7F2FF2046FFF71BF9204610BD000035
:1071D0000329F0B407D12B4B53F82000F0B103681A
:1071E000F0BCDB68184782291AD12749274AC3B265
:1071F00001EB43150324AE6964F31E76AE610968A2
:10720000083302EB80105B016861C818027942F014
:1072100080020271CA5C64F30612CA54F0BC704763
:107220000029FBD1184DC3B205EB43120327946824
:1072300067F31E749460164C083304EB80105060A2
:107240005B012868C45C012666F30204C454D2F8CA
:1072500018C00E4C67F31E7CC2F818C05461C45CA1
:1072600066F30614C454C5189368402060F39B333A
:107270009360936861F30D0393606B7903436B71C3
:10728000CCE700BF24110020D81500204C110020AD
:107290000C130020EFF3108202600122426072B6EC
:1072A0007047036813B962B6BFF36F8F704737B585
:1072B000056904466846ADB9FFF7ECFF019B13F181
:1072C000FF3303D394F82450EDB2F8E768460193F6
:1072D000FFF7E7FF15B9002003B030BD206AE3696E
:1072E000C01AF9E7FFF7D6FF019B002513F1FF3322
:1072F00003D394F83450EDB2F8E768460193FFF7F2
:10730000D0FF002DE7D0206BE36AE9E74368027AFB
:107310001B6803EB421393F8092142F0010283F842
:107320000921027A4368C16803EB42139A6861F34A
:107330009B329A60027A436803EB42139A686FF3B8
:107340000D029A604368027A1B68083203EB42130D
:107350001A7942F040021A717047F7B50369044682
:107360000E4617466846002B44D1FFF793FF019B5A
:10737000013B5D1C0ED094F82420591E02F0FF053D
:1073800032B968460193FFF78CFF284603B0F0BD81
:107390000B46EEE768460193FFF783FF0025AF42F7
:1073A000E36909D0226A9A4206D9A269591CE161AF
:1073B000D35C73550135F2E7226A9A42E5D1002683
:1073C0000123E66123616846FFF764FF3746019BAE
:1073D000013B581CD5D084F8246094F83520591E00
:1073E00032B184F8357020460193FFF78FFFEEE746
:1073F0000B46EEE7FFF74EFF019B013B591C08D0FF
:1074000094F83420591E02F0FF05002AB9D00B462B
:10741000F4E768460193FFF744FF0025BD42E36AA5
:1074200002D0226B9A421AD8226B9A42ADD1002622
:10743000E66226616846FFF72DFF3746019B013B58
:107440005A1C9ED084F8346094F83520591E6AB1D5
:1074500084F8357020460193FFF758FFEEE7A26AE3
:10746000591CE162D35C73550135D7E70B46E7E75A
:1074700037B54368027A1B68083203EB42130446AF
:10748000DA79D00727D50125DD71D4E90132D2B2EE
:1074900003EB421361699A68C2F30D0209BB2262D1
:1074A000226A002A3CD0A26A656168465A60FFF7EA
:1074B000F1FE019B013B591C2ED084F8245094F816
:1074C0003420591E02F0FF003AB184F83550684666
:1074D0000193FFF7E6FE03B030BD84F835000B469C
:1074E000E9E72263226BDAB100226261A2695A6085
:1074F0006846FFF7CFFE019B013B5A1C0CD084F875
:10750000345094F82420591E02F0FF00002ADCD1E8
:1075100084F835000B46F0E768460193FFF7C1FE9B
:107520002046FFF7F3FED6E737B502AD002305F896
:10753000013D0C462846FFF7CBFD23681844206028
:1075400000F0C4FE294600F091FE23681844206034
:107550009DF8070003B030BD03290BD10C4B1B680D
:1075600093F8642142F0800283F86421022283F8B8
:107570006721704701290AD1054B1B6893F8242124
:1075800042F0800283F82421022283F827217047E9
:10759000D8150020404B70B50121002406464C2030
:1075A0001C70FEF72BFE01214C20FEF76BFE3B4BBF
:1075B0003B4D1C7001214B20FEF720FE01214B208A
:1075C000FEF760FE374B38489A6942F001029A6133
:1075D0001A6942F480621A61344B93F8582042F0E1
:1075E000010283F8582093F83C2002F0F00283F85F
:1075F0003C2093F83C2042F0070283F83C2093F8AB
:10760000592042F0010283F8592093F83C2002F0FF
:107610000F0283F83C2093F83C2042F0700283F87C
:107620003C20234B4122C3F8A820FEF785FC2846C6
:1076300000F05EFE284600F075FE2A68137864F3B9
:10764000C71313702A68137843F0040313702A6871
:10765000138964F383031381164B4FF4803183F84D
:10766000504383F8514383F8524383F8534399605E
:107670004FF4003199604FF4802199604FF400215C
:107680009960137843F0020313702A6893789B077C
:10769000FCD40123337070BD411100204011002043
:1076A000D8150020000800407180000000800041D3
:1076B000001C004000E100E0007880B1084B1B682E
:1076C0001A896FF300021A811A8B42F008021A839A
:1076D0001A8B42F004021A83024B00221A60704790
:1076E000D8150020D01500200E4B9A696FF30D02BB
:1076F0009A611B68022283F8072193F8052142F062
:10770000800283F8052193F807219207FBD54FF0FB
:1077100082439A7A61F306029A729A7A42F0800260
:107720009A727047D81500200B7910B50C465BB9DA
:107730000846FFF7D9FC08B1012010BD094B9A6932
:1077400060F30D029A61F7E700F0C0FD214600F0FA
:10775000AEFD0028F0D1034B9A6960F30D029A61E7
:10776000EBE700BFD8150020832A2DE9F0410D4634
:1077700016D1CBB23049314A01EB4310032684695C
:1077800066F31E748461083302EB85150968456150
:107790005B010420CA5C60F30612CA54BDE8F081A4
:1077A000022A42D1264E56F8210010B103685B69C7
:1077B00098473820FEF720FE1F4F224B03604FF4FE
:1077C0008078002304460362C0E9038380F82430F4
:1077D00043610363C36180F83430C36280F835309D
:1077E000C0E90175404601F0BDFAA061404601F0D4
:1077F000B9FAEBB207EB4312A0629168032060F381
:107800001E719160083339685B01CA5C60F3020243
:10781000CA546368217AA26903EB411320465A6077
:10782000FFF774FD46F82540B8E728461146BDE845
:10783000F041FFF7CDBC00BFD81500204C1100204F
:107840002411002028C2000070B5064E0546012410
:1078500056F824202AB121462846FFF785FF013437
:10786000F6E770BD7C000020074B53F8210010B1F3
:1078700003689B681847054BC9B203EB4111886840
:10788000C0F30D00704700BF24110020D815002060
:1078900010B50C46FFF7E8FF58B1064BE4B2196883
:1078A000083401EB44114B7943F080034B71022300
:1078B000CB7110BDD8150020124B30B5CAB203EB06
:1078C0008111114B5501581908244160816864F3F6
:1078D0009B31816081686FF30D01816018682244DB
:1078E00000EB42110C7944F040040C718C79640671
:1078F000FCD500EB4212D179C907FCD52B4498681E
:10790000C0B230BD0C130020D815002038B50C4B88
:1079100014461A6892F8043143F0400382F80431A7
:107920000D460021FFF7C8FF0649A04228BF2046A8
:107930000023A34203D05A5CEA540133F9E738BD6F
:10794000D81500200C13002010B50B4BC9B249010B
:1079500058180B448268C2F30D023F2A89BF84681D
:107960008268403A62F30D0496BF6FF30D028460A3
:1079700082609868C0B210BDD81500202DE9F0478C
:107980001D462F4B1B6807460E469146002B54D0D0
:107990002C4C227802F0FF0112B94B20FEF772FC4A
:1079A00064232370284B53F8260030B103682A461D
:1079B00049465B68BDE8F047184731463846FFF74F
:1079C00053FF854204D931463846FFF74DFF05463F
:1079D000DFF87CA031463846FFF7B6FFF4B2DAF89C
:1079E00000301A494FEA4418434401EB861193F8DA
:1079F000082142F0010283F8082148462A4601F096
:107A0000D3F9BDB131463846FFF72EFF90B9DAF809
:107A1000002004F1080302EB4313197941F04001FF
:107A200019710121D97102EB080393F809210A4366
:107A300083F809212846BDE8F0874FF0FF35F9E7C4
:107A4000D015002040110020241100200C1300202C
:107A5000D815002007B501230DF10702FFF78EFFAF
:107A600001280CBF9DF807004FF0FF3003B05DF810
:107A700004FB00002DE9F74F9846384B1B688946F8
:107A80009246002B42D0B8F5804F3FD8344C227834
:107A900002F0FF0112B94C20FEF7F4FB64232370BF
:107AA0005FFA89F42F4B04F1080B4FEA4B1203EBFA
:107AB000891300260192B8F1000F29D02A4A0199B2
:107AC0001568691889790092C909284924D0284A7B
:107AD00028481268B2FBF0F0274A42431720B2FB55
:107AE000F0F205EB4B10C779BF0715D411F80970F8
:107AF00017B912F1FF32F6D2012301F80930009BC9
:107B000003EB4414A3696FF30D03A3614FF0FF3639
:107B1000304603B0BDE8F08F4746402F28BF4027CE
:107B2000002201F80920184651463A4601F03CF976
:107B3000009A02EB441205EB4B155061916967F313
:107B40000D0191610222EA716A7942F080020346D6
:107B50006A713E44A8EB0708BA44ACE7D015002090
:107B6000411100204C110020D815002043110020A5
:107B7000A400002040420F007011010070B50C4CB1
:107B80000D4604EB8514114620461A461E4601F0A8
:107B90000BF90849EDB201EB451130464C618B6998
:107BA0006FF39B338B618B6966F30D038B6170BD43
:107BB0004C110020D8150020114B1B782DE9F04105
:107BC00007468846164653B90E4B1C7854B10E4DE5
:107BD0000E482C882044344401F0E6F82C803046CE
:107BE000BDE8F0811546002DF9D02B4608EB0402C4
:107BF00000213846FFF7C2FF04442D1AF3E700BF07
:107C0000CC140020CD150020CE150020CD1400206E
:107C1000F8B5012A00AF0D4614462BD9D31D03F445
:107C2000FC73ADEB030D084601F034FF013040005A
:107C300003238DF800008DF801306E46013D0223CC
:107C40000020A3420CD215F8011F49B15A1CD2B230
:107C50009442F15403D00233B054DBB2F1E723462F
:107C60001A4631460448FFF7A7FF003018BF01202D
:107C7000BD46F8BD0020FBE7201100202DE9F043B0
:107C800085B004AE002446F8104DDFF88890884691
:107C900001273146054689F80070FFF745FC40F2A0
:107CA0000923ADF80430A0238DF80B3032238DF872
:107CB0000C30009B8DF80A400933B8F1090F8DF89C
:107CC0000970ADF806308DF8080089F8004008D139
:107CD000424601A92846FFF76FFF012005B0BDE825
:107CE000F083DFF83480009488F80070074F092291
:107CF00001A928463C80FFF75FFF31462846FFF781
:107D000013FC88F800403A880149E3E7CE150020CB
:107D1000CD140020CC140020CD150020F0B5CF7874
:107D2000022F93B006460D4608D1C9882C48FFF7AC
:107D3000A5FF003018BF012013B0F0BD00F0C6FA57
:107D4000294600F0A6FA041E03D0CCBF0120002073
:107D5000F2E7012F0AD1EA88112A3CD82149D2B290
:107D600062B13046FFF728FF0120E5E7032F34D149
:107D7000AB782BB9EA88032A2AD91B490A78F0E79D
:107D8000022B05D1AA7919493046FFF741FFD3E705
:107D9000012B02D1AA791649F6E7032B1DD1154B09
:107DA00001A91868FFF7EFF9134B03A91868FFF74B
:107DB000EAF9124B05A91868FFF7E5F9104B07A976
:107DC0001868FFF7E0F98DF82440AA7901A9DBE7EC
:107DD000D2B20549C4E70349D0E72046ACE700BF6B
:107DE000201100206BC200005AC2000040C20000F7
:107DF0005EC20000FC6180001060800014608000A2
:107E00001860800037B54B780C460B2B0FD8DFE895
:107E100003F0061E0E2F0E4549774C4F6B6E097806
:107E200041B9ADF80410022301AAFFF7A7FE012013
:107E300003B030BD0023ADF80430324B1B78012B6A
:107E400008BF8DF8043001AA02230021EDE78B78EA
:107E5000012B4FF0000303D1ADF804302A4BEDE7BE
:107E6000284A1370294A916963F30D019161DEE795
:107E70008C78012C07D1244B02AA00211C7002F837
:107E8000041D2346D1E7002C3AD11E4B0120187067
:107E90001E4B9A6964F30D029A61C9E78978FFF76E
:107EA00023FCC4E7FFF73AFFC2E70123184ACCE7F7
:107EB0000B7813F01F0523D1FFF7C6FC144BA278F3
:107EC0001A60124A136893F8291141F0020183F8ED
:107ED000291193F8491141F0010183F8491193697F
:107EE00065F30D039361A2E701230A4AADE7094B4D
:107EF0008A781A60054B9A696FF30D029A6196E7CA
:107F0000002095E7421100204A110020D8150020DA
:107F1000D0150020D41500202DE9F8434D4B1D78D5
:107F20000746002D40F087804B4C23689B8B190738
:107F30000ED529462846FFF74BF9236893F8092107
:107F400042F0100283F80921444A156008229A83FE
:107F500023689A8B52071BD504229A83404A1378D0
:107F60004BB11378013BDBB2137013781BB90121BD
:107F70004C20FEF787F93B4A13784BB11378013B4D
:107F8000DBB2137013781BB901214B20FEF77AF98D
:107F9000236893F80721D60626D5102283F80721F7
:107FA00093F80421304942F0400283F804210B7811
:107FB00013F0600F384640D1FFF724FF23680028F4
:107FC0003ED093F8052142F0800283F8052193F812
:107FD0000721550608D5402283F8072193F8082188
:107FE00042F0400283F808212368DFF880901E8C5D
:107FF000002506F0FE064FF00108E9B2DEB146FAB0
:1080000005F3D80714D5236805F1080203EB4213E2
:10801000DA79D20702D4DB799B0705D559F8250018
:10802000A0B103681B68984708FA05F326EA03061F
:108030000135092DE1D1BDE8F883FFF775FBBDE7F8
:108040004FF08242202182F80511C0E73846FFF741
:1080500083FAE9E7CD150020D8150020D0150020BF
:1080600041110020401100200C1300202411002099
:108070000148FFF751BF00BF20110020024B4FF015
:1080800082421A60704700BFD81500203F4BF7B5F9
:108090001B684FF47A72B3FBF2F3013BB3F1807FBC
:1080A00070D23B494B603B4BC02283F82320072012
:1080B00000228A600860802183F82310364B5969BA
:1080C00041F470415961996941F4FC419961D96960
:1080D00041F07801D961196A6FEA91216FEA812133
:1080E000196203F5A0534121C3F82011C3F82411EC
:1080F00003F14073009303F5806301930424022588
:1081000005264FF4C0575DF82230198864F30A2120
:108110001980D98865F3C401D980196B0807FCD48C
:10812000DE72196B4906FCD49F80196B11F00401B3
:10813000FBD19972186B10F02000FBD11AB300F03C
:1081400031F8164B4422C3F82821D3F828215006D1
:10815000FBD5134A13469168C907FCD4117841F046
:10816000010111709A68D207FCD400225A709A89D2
:10817000022161F30B229A81DA8961F30B22DA8101
:1081800003B0F0BDFEE70122BDE700BFA400002060
:1081900010E000E000ED00E000080040001C00409E
:1081A000002400432E4B1A46196BC906FCD42D49F6
:1081B0000B6BDB06FCD401382A4B0A284CD8DFE8CD
:1081C00000F0061B212529324B363A483E00264B4B
:1081D000DA696FF31342DA61DA6942F00402DA61B4
:1081E0001F4A137A6FF30303137292F808346FF384
:1081F000030382F8083470471B4BDA69012161F3ED
:108200001342E8E7184B0221DA69F8E7164B03211D
:10821000DA69F4E7144BDA69042161F31342DA6195
:10822000DA690A43DBE7104B0521DA69E7E70E4B11
:108230000621DA69E3E70C4B0721DA69DFE7117AF7
:10824000042060F3030111721A7A60F303021A72B8
:108250007047117A0220F4E7117A0320F1E700BF9A
:10826000001C0043002000430018004070B5446823
:108270000E4600255CB1236831465B68204698476E
:10828000002802DB0544E468F4E74FF0FF35284698
:1082900070BD38B544680D463CB1236829469B68DB
:1082A0002046984710B9E468F6E7204638BD38B54F
:1082B00044680D463CB1236829461B682046984710
:1082C00010B9E468F6E7204638BD0000064A136896
:1082D00013F0010306D1054940F202404B6001232F
:1082E0000880136001487047DC160020E01600206B
:1082F00010B50346044653F8041B0A7842F0010205
:108300000A7018464FF48072002100F058FD226870
:1083100003469178C807FCD491788907F9D4536251
:1083200010BD000030B5104B04681B68258D03F0AC
:108330001F011F2908BF052161F38A1525850168E2
:10834000C3F344120C8D1F2A08BF1D2262F30404DC
:108350000C850268C3F38223118D072B08BF03230A
:1083600063F30E31118530BD840080000B46014659
:10837000184600F0B3BC000081F0004102E000BFED
:1083800083F0004330B54FEA41044FEA430594EAD5
:10839000050F08BF90EA020F1FBF54EA000C55EA10
:1083A000020C7FEA645C7FEA655C00F0E2804FEAE1
:1083B0005454D4EB5555B8BF6D420CDD2C4480EAC3
:1083C000020281EA030382EA000083EA010180EAF3
:1083D000020281EA0303362D88BF30BD11F0004F41
:1083E0004FEA01314FF4801C4CEA113102D0404277
:1083F00061EB410113F0004F4FEA03334CEA1333B2
:1084000002D0524263EB430394EA050F00F0A780C9
:10841000A4F10104D5F1200E0DDB02FA0EFC22FAC4
:1084200005F2801841F1000103FA0EF2801843FAB8
:1084300005F359410EE0A5F120050EF1200E012AA9
:1084400003FA0EFC28BF4CF0020C43FA05F3C018E7
:1084500051EBE37101F0004507D54FF0000EDCF160
:10846000000C7EEB00006EEB0101B1F5801F1BD309
:10847000B1F5001F0CD349085FEA30004FEA3C0C0D
:1084800004F101044FEA445212F5800F80F09A8003
:10849000BCF1004F08BF5FEA500C50F1000041EB07
:1084A000045141EA050130BD5FEA4C0C404141EB0B
:1084B000010111F4801FA4F10104E9D191F0000F32
:1084C00004BF01460020B1FA81F308BF2033A3F1B5
:1084D0000B03B3F120020CDA0C3208DD02F1140CAC
:1084E000C2F10C0201FA0CF021FA02F10CE002F1E7
:1084F0001402D8BFC2F1200C01FA02F120FA0CFCE0
:10850000DCBF41EA0C019040E41AA2BF01EB045128
:10851000294330BD6FEA04041F3C1CDA0C340EDC26
:1085200004F11404C4F1200220FA04F001FA02F369
:1085300040EA030021FA04F345EA030130BDC4F127
:108540000C04C4F1200220FA02F001FA04F340EA1C
:108550000300294630BD21FA04F0294630BD94F0CD
:10856000000F83F4801306BF81F480110134013DB4
:108570004EE77FEA645C18BF7FEA655C29D094EA25
:10858000050F08BF90EA020F05D054EA000C04BFA3
:108590001946104630BD91EA030F1EBF002100208E
:1085A00030BD5FEA545C05D14000494128BF41F02D
:1085B000004130BD14F580043CBF01F5801130BD91
:1085C00001F0004545F0FE4141F470014FF000001C
:1085D00030BD7FEA645C1ABF194610467FEA655CCD
:1085E0001CBF0B46024650EA013406BF52EA03356F
:1085F00091EA030F41F4002130BD00BF90F0000F5D
:1086000004BF0021704730B54FF4806404F1320498
:108610004FF000054FF0000150E700BF90F0000F51
:1086200004BF0021704730B54FF4806404F1320478
:1086300010F0004548BF40424FF000013EE700BF48
:1086400042004FEAE2014FEA31014FEA02701FBFD8
:1086500012F07F4393F07F4F81F06051704732F00A
:108660007F4208BF704793F07F4F04BF41F4002161
:10867000704730B54FF4607401F0004521F00041BF
:108680001CE700BF50EA010208BF704730B54FF049
:1086900000050AE050EA010208BF704730B511F04A
:1086A000004502D5404261EB41014FF4806404F182
:1086B00032045FEA915C3FF4D8AE4FF003025FEA08
:1086C000DC0C18BF03325FEADC0C18BF033202EB8C
:1086D000DC02C2F1200300FA03FC20FA02F001FAE6
:1086E00003FE40EA0E0021FA02F11444BDE600BF89
:1086F00070B54FF0FF0C4CF4E06C1CEA11541DBF38
:108700001CEA135594EA0C0F95EA0C0F00F0DEF802
:108710002C4481EA030621EA4C5123EA4C5350EAE7
:10872000013518BF52EA033541F4801143F4801338
:1087300038D0A0FB02CE4FF00005E1FB02E506F0C9
:108740000042E0FB03E54FF00006E1FB03569CF01E
:10875000000F18BF4EF0010EA4F1FF04B6F5007F24
:1087600064F5407404D25FEA4E0E6D4146EB060696
:1087700042EAC62141EA55514FEAC52040EA5E501F
:108780004FEACE2EB4F1FD0C88BFBCF5E06F1ED8C9
:10879000BEF1004F08BF5FEA500E50F1000041EB00
:1087A000045170BD06F0004646EA010140EA0200AD
:1087B00081EA0301B4EB5C04C2BFD4EB0C0541EACF
:1087C000045170BD41F480114FF0000E013C00F3E4
:1087D000AB8014F1360FDEBF002001F0004170BD08
:1087E000C4F10004203C35DA0C341BDC04F1140421
:1087F000C4F1200500FA05F320FA04F001FA05F2AD
:1088000040EA020001F0004221F0004110EBD37079
:1088100021FA04F642EB06015EEA430E08BF20EAA5
:10882000D37070BDC4F10C04C4F1200500FA04F348
:1088300020FA05F001FA04F240EA020001F00041DA
:1088400010EBD37041F100015EEA430E08BF20EA4D
:10885000D37070BDC4F1200500FA05F24EEA020E95
:1088600020FA04F301FA05F243EA020321FA04F0C4
:1088700001F0004121FA04F220EA020000EBD3707B
:108880005EEA430E08BF20EAD37070BD94F0000F7B
:108890000FD101F00046400041EB010111F4801FAF
:1088A00008BF013CF7D041EA060195F0000F18BF60
:1088B000704703F00046520043EB030313F4801F9C
:1088C00008BF013DF7D043EA0603704794EA0C0F56
:1088D0000CEA135518BF95EA0C0F0CD050EA41066C
:1088E00018BF52EA4306D1D181EA030101F00041E9
:1088F0004FF0000070BD50EA410606BF1046194611
:1089000052EA430619D094EA0C0F02D150EA01361C
:1089100013D195EA0C0F05D152EA03361CBF10465D
:1089200019460AD181EA030101F0004141F0FE41FC
:1089300041F470014FF0000070BD41F0FE4141F480
:10894000780170BD70B54FF0FF0C4CF4E06C1CEA80
:1089500011541DBF1CEA135594EA0C0F95EA0C0F35
:1089600000F0A7F8A4EB050481EA030E52EA0335F0
:108970004FEA013100F088804FEA03334FF0805511
:1089800045EA131343EA12634FEA022245EA11153E
:1089900045EA10654FEA00260EF000419D4208BFEF
:1089A000964244F1FD0404F5407402D25B084FEA9C
:1089B0003202B61A65EB03055B084FEA32024FF448
:1089C00080104FF4002CB6EB020E75EB030E22BFA5
:1089D000B61A754640EA0C005B084FEA3202B6EB65
:1089E000020E75EB030E22BFB61A754640EA5C0014
:1089F0005B084FEA3202B6EB020E75EB030E22BFA4
:108A0000B61A754640EA9C005B084FEA3202B6EBA4
:108A1000020E75EB030E22BFB61A754640EADC0063
:108A200055EA060E18D04FEA051545EA16754FEAC5
:108A300006164FEAC30343EA52734FEAC2025FEAE3
:108A40001C1CC0D111F4801F0BD141EA00014FF072
:108A500000004FF0004CB6E711F4801F04BF014343
:108A60000020B4F1FD0C88BFBCF5E06F3FF6AFAE5F
:108A7000B5EB030C04BFB6EB020C5FEA500C50F1EF
:108A8000000041EB045170BD0EF0004E4EEA113172
:108A900014EB5C04C2BFD4EB0C0541EA045170BD79
:108AA00041F480114FF0000E013C90E645EA060EBD
:108AB0008DE60CEA135594EA0C0F08BF95EA0C0FEB
:108AC0003FF43BAF94EA0C0F0AD150EA01347FF433
:108AD00034AF95EA0C0F7FF425AF104619462CE70A
:108AE00095EA0C0F06D152EA03353FF4FDAE10466D
:108AF000194622E750EA410618BF52EA43067FF4BE
:108B0000C5AE50EA41047FF40DAF52EA43057FF44D
:108B1000EBAE12E74FF0FF3C06E000BF4FF0010C58
:108B200002E000BF4FF0010C4DF804CD4FEA410CBC
:108B30007FEA6C5C4FEA430C18BF7FEA6C5C1BD089
:108B400001B050EA410C0CBF52EA430C91EA030F0A
:108B500002BF90EA020F0020704710F1000F91EA67
:108B6000030F58BF994208BF90422CBFD8176FEA35
:108B7000E37040F0010070474FEA410C7FEA6C5C03
:108B800002D150EA013C07D14FEA430C7FEA6C5C0A
:108B9000D6D152EA033CD3D05DF8040B704700BF36
:108BA0008446104662468C461946634600E000BF84
:108BB00001B5FFF7B7FF002848BF10F1000F01BD56
:108BC0004DF808EDFFF7F4FF0CBF012000205DF821
:108BD00008FB00BF4DF808EDFFF7EAFF34BF0120A6
:108BE00000205DF808FB00BF4DF808EDFFF7E0FF3F
:108BF00094BF012000205DF808FB00BF4DF808ED90
:108C0000FFF7CEFF94BF012000205DF808FB00BFF6
:108C10004DF808EDFFF7C4FF34BF012000205DF8D8
:108C200008FB00BF4FEA410C7FEA6C5C02D150EABE
:108C3000013C0AD14FEA430C7FEA6C5C02D152EA54
:108C4000033C02D14FF0000070474FF00100704725
:108C50004FEA410212F5001215D211D56FF4787364
:108C6000B3EB625212D94FEAC12343F0004343EA07
:108C7000505311F0004F23FA02F018BF40427047E2
:108C80004FF00000704750EA013005D111F000406C
:108C900008BF6FF0004070474FF00000704700BF02
:108CA0001FB51C46094B1B680546D86852B1084BD6
:108CB0000091CDE9013207492B46224600F01CF80D
:108CC00000F0BEFF044B1A46F2E700BFA8000020E8
:108CD0007DC200008AC20000B8C2000010B5054C79
:108CE00013462CB10A4601460220AFF3008010BDA6
:108CF0002046FCE7000000000EB403B5014603ABBC
:108D0000054853F8042B0068019300F033F902B0D2
:108D10005DF804EB03B07047A800002070B50D4E5D
:108D20000D4CA41BA4100025A54209D10B4E0C4CE0
:108D300002F068FCA41BA4100025A54205D170BD5B
:108D400056F8253098470135EEE756F82530984714
:108D50000135F2E778020020780200207802002036
:108D60009C020020024B0146186800F07FB800BF4B
:108D7000A8000020024B0146186800F029B800BF87
:108D8000A800002082B001B901A942B14BB113780B
:108D90000B601278101C18BF012002B070471046FB
:108DA000FBE76FF00100F8E710B5431E0A4491425B
:108DB00000D110BD11F8014B03F8014FF7E7024451
:108DC0000346934200D1704703F8011BF9E7000006
:108DD00038B50546002945D051F8043C0C1F002B3E
:108DE000B8BFE41801F0B4FF1F4A1368104633B946
:108DF000636014602846BDE8384001F0AABFA34272
:108E00000CD921686218934204BF1A685B686360DA
:108E100004BF521822600460ECE713465A680AB196
:108E2000A242FAD919685818A0420BD1206801440F
:108E3000581882421960DDD1106852685A600144A6
:108E40001960D7E702D90C232B60D3E720682118DB
:108E50008A4204BF11685268626004BF0918216029
:108E60005C60C7E738BD00BFE816002070B5CD1CB8
:108E700025F0030508350C2D38BF0C25002D0646BE
:108E800001DBA94203D90C233360002070BD01F03F
:108E90005FFF214A1468214691B9204C23681BB911
:108EA000304600F0DFFD20602946304600F0DAFD54
:108EB000431C24D10C233360304601F04AFFE4E721
:108EC0000B685B1B18D40B2B0FD90B60CD50CC1843
:108ED000304601F03EFF04F10B00231D20F0070097
:108EE000C31AD3D05A42E250D0E78C424B6816BF27
:108EF000636013600C46EBE70C464968CCE7C41C82
:108F000024F00304A04205D0211A304600F0AAFD47
:108F10000130CFD02560DBE7E8160020EC160020FA
:108F20009368013B002B10B4936008DA9469A34264
:108F300001DB0A2903D15DF8044B00F0B3BD1368CF
:108F4000581C1060197008465DF8044B7047F8B55E
:108F500006460F461446D518AC4201D1002007E062
:108F60003A4614F8011B3046FFF7DAFF431CF3D1F1
:108F7000F8BD00002DE9F04F9DB00C461746039355
:108F8000064618B183690BB901F096FD7B4B9C42F4
:108F900057D17468A38918075DD52369002B5AD06F
:108FA0000023099320238DF8293030238DF82A30AF
:108FB0004FF0010BB846454615F8013B0BB1252B88
:108FC00054D1B8EB070A0BD053463A4621463046F7
:108FD000FFF7BDFF013000F0C280099B53440993A5
:108FE00098F80030002B00F0BA8000234FF0FF32D9
:108FF000CDE90523049307938DF853301A93A846BF
:10900000052218F8011B5E4801F052FE049B78BB54
:10901000D90644BF20228DF853201A0744BF2B22C3
:109020008DF853202A782A2A2AD0079AA8460020A9
:109030000A25414611F8013B303B092B69D960B341
:1090400024E0504B9C4201D1B468A3E74E4B9C42B4
:1090500008BFF4689EE72146304600F083FD0028F3
:109060009ED04FF0FF301DB0BDE8F08FA846A2E7BC
:10907000434A801A0BFA00F0184304904546BEE7B5
:10908000039A111D12680391002A01DB079204E084
:10909000524243F002030792049398F800302E2BBB
:1090A0000ED198F801302A2B38D1039B1A1D1B686A
:1090B0000392002BB8BF4FF0FF3308F1020805936D
:1090C000324D98F800100322284601F0F1FD40B11E
:1090D0004023401B03FA00F0049B034308F10108FE
:1090E000049398F800102A488DF82810062208F1F9
:1090F000010701F0DDFD002837D0264B1BBB039B89
:10910000073323F0070308330393099B4B44099368
:1091100050E705FB0232012088468AE7002308F168
:109120000108059319460A25404610F8012B303AEC
:10913000092A03D9002BC3D00591C1E705FB012102
:1091400001238046F0E703AB00932246124B04A9AB
:10915000304600F0B7F8B0F1FF3F8146D5D1A38982
:109160005B063FF57EAF09987DE703AB009322468F
:10917000094B04A9304600F05BFBECE740C400005B
:10918000CAC2000060C4000020C40000D0C20000B9
:10919000D4C20000C59200004F8F00002DE9FF47A8
:1091A00055EC104B0D9FDDF830A0002D0E4691467A
:1091B0001946B8BF22462B4627F02007BBBF05F152
:1091C00000431D4600232D23B8BF1446462F0B70C5
:1091D00004D0452F00D10136022100E0032103AB6A
:1091E000019302AB00933246534645EC104B00F01E
:1091F000BBFD472F804602D119F0010F26D0462F24
:1092000008EB060911D198F80030302B0AD1002262
:10921000002320462946FFF7D3FC18B9C6F1010602
:10922000CAF80060DAF80030994400220023204692
:109230002946FFF7C5FC38B93022039B4B4505D2C0
:10924000591C03911A70F8E7CDF80C90039B0E9A05
:10925000A3EB08034046136004B0BDE8F087F7B500
:1092600000290446BABF49422D232B23092904F8BB
:10927000022B437020DD0DF107031F460A2691FBE8
:10928000F6F506FB15113031092D03F8011C03F129
:10929000FF32294609DC3031023B02F8011CBB4297
:1092A000224604D3101A03B0F0BD1346E7E713F8C3
:1092B000012B04F8012BF2E7302319448370021DBF
:1092C000C170EFE72DE9F04F8DB00C46DDF8588006
:1092D00016461F46054601F079FC036804931846BC
:1092E00000F0D8FB00230A93D8F80030059007332C
:1092F00023F0070303F1080294F818A0D4F800B093
:10930000C8F80020D3E90023C4E91223D4E9128964
:1093100029F000430793CDF818804FF0FF32A74B98
:10932000DDE90601FFF77EFC70BB4FF0FF32A34B77
:10933000DDE90601FFF758FC30BB00220023404660
:109340004946FFF747FC10B12D2384F843309C4A6F
:109350009C4BBAF1470F8CBF9046984603232BF0E5
:109360000402236122604FF00009009733460BAAE4
:109370002146284600F0E6F9013040F08D804FF09C
:10938000FF300DB0BDE8F08F42464B46404649469F
:10939000FFF748FC10B18C4A8C4BDAE761684B1C34
:1093A0004BF480620AA83ED1062363600023CDE916
:1093B000020309AB009349EC108B0DF123032260EB
:1093C000CDF804A061682846FFF7E8FE0AF0DF0345
:1093D000472B804609D1099BD81C02DB6268934267
:1093E00047DDAAF1020A5FFA8AFABAF1650F099914
:1093F00024D80139524604F150000991FFF72FFF9C
:109400000A9A1318012A8146236102DC2268D107D7
:1094100001D5013323619DF82330002BA5D02D23E6
:1094200084F84330A1E7BAF1670F00F07781BAF111
:10943000470FBBD10029B9D10123B6E7BAF1660FB6
:1094400019D1002963680CDD216113B92268D207A4
:1094500002D501330B442361099BA3654FF000093A
:10946000D9E713B92268D00701D50233F3E7012306
:10947000F1E74FF0670ADDE90932934205DB226824
:109480002361D107E8D50133E5E7002BD4BFC3F151
:10949000020301231344DEE723685A0507D4236936
:1094A000424631462846B84701302BD167E7BAF12A
:1094B000650F40F2DC8000220023D4E91201FFF79F
:1094C0007FFB002833D00123414A31462846B84764
:1094D00001303FF454AFDDE909239A4202DB2368EF
:1094E000D8070FD5DDE9042331462846B8470130B7
:1094F0003FF445AF4FF0000804F11A090A9B013B05
:10950000434509DC23689B0700F10381E0680B9B5E
:109510009842B8BF184634E701234A4631462846E8
:10952000B84701303FF42BAF08F10108E6E7099B8B
:10953000002B2BDC0123264A31462846B847013050
:109540003FF41DAF099B23B90A9B13B92368D907C0
:10955000D8D5DDE9042331462846B84701303FF429
:109560000EAF4FF0000904F11A0A099B5B424B450C
:1095700001DC0A9B94E70123524631462846B8474E
:1095800001303FF4FCAE09F10109EEE70A9AA36D40
:109590009A42A8BF1A46002A914607DD1346314673
:1095A00042462846B84701303FF4E9AE04F11A03B9
:1095B0004FF0000B29EAE979069315E0FFFFEF7FF2
:1095C000DFC20000DBC20000E7C20000E3C200000F
:1095D000EBC200000123069A31462846B847013005
:1095E0003FF4CDAE0BF1010BD4F858A0AAEB090360
:1095F0005B45EFDCDDE909239A42D04415DB2368A3
:10960000DA0712D40A9B0999A3EB0A02A3EB010A19
:109610009245A8BF9246BAF1000F0EDC4FF0000849
:109620002AEAEA7A04F11A0919E0DDE9042331464D
:109630002846B8470130E5D1A1E6534642463146B7
:109640002846B8470130E9D199E601234A46314618
:109650002846B84701303FF492AE08F10108DDE931
:1096600009239B1AA3EB0A034345EEDC4AE70A9A57
:10967000012A01DCDB073AD5012342463146284660
:10968000B84701303FF47BAEDDE90423314628467C
:10969000B847013008F101083FF471AE0A9B00227F
:1096A00003F1FF3AD4E912010023FFF789FAC8B9A0
:1096B0005346424631462846B84701300ED15EE651
:1096C0000123524631462846B84701303FF457AE91
:1096D00008F101080A9B013B4345F1DC4B4604F1CC
:1096E0005002DEE64FF0000804F11A0AF2E7012307
:1096F000DFE701234A4631462846B84701303FF4A8
:109700003EAE08F10108E3680B9A9B1A4345F0DC72
:10971000FCE64FF0000804F11909F4E700293FF4D2
:109720008BAE0023CDE9020309AB009349EC108B0B
:109730002260CDF804A00DF123032846FFF72EFD8B
:10974000804648E62DE9F04791461F468A680B6936
:10975000DDF820809342B8BF1346C9F8003091F875
:10976000432006460C4612B10133C9F80030236885
:10977000990642BFD9F800300233C9F80030256895
:1097800015F0060507D104F1190AE368D9F800209D
:109790009B1AAB4228DC94F843302268003318BF90
:1097A000012392062DD404F1430239463046C047C6
:1097B000013020D02368E568D9F8002003F00603C3
:1097C000042B08BFAD1AA36822690CBF25EAE57512
:1097D00000259342C4BF9B1AED184FF000091A34BC
:1097E0004D451AD1002008E0012352463946304643
:1097F000C047013003D14FF0FF30BDE8F08701359D
:10980000C3E7E1185A1C302081F84300224494F841
:10981000451082F843100233C5E70123224639463A
:109820003046C0470130E6D009F10109D8E7000011
:109830002DE9F04301F1430C0C46097E85B06E29F9
:109840001746064698460C9A00F0B38022D8632942
:1098500036D00AD8002900F0B980582900F083805A
:1098600004F1420584F8421032E0642901D06929EC
:10987000F6D120681368050603F104012AD51B6898
:109880001160002B03DA2D225B4284F843206F48DD
:109890000A2239E0732900F09D8008D86F2920D072
:1098A0007029DDD1236843F02003236003E075298C
:1098B00017D07829D4D1782384F84530644855E00E
:1098C0001368191D1B68116004F1420584F84230C9
:1098D00001238CE01B68116010F0400F18BF1BB211
:1098E000CFE713682568181D1060280601D51B688E
:1098F00002E06806FBD51B8854486F2914BF0A2272
:109900000822002184F843106568A560002DC0F28C
:109910009580216821F004012160002B3DD1002DAC
:1099200040F08E806546082A0BD12368DB0708D5F6
:10993000236962689A42DEBF302305F8013C05F1D5
:10994000FF35ACEB05032361CDF800803B4603AA4D
:1099500021463046FFF7F6FE01304DD14FF0FF3083
:1099600005B0BDE8F083394884F8451013682168D4
:109970001D1D1B6815600A060BD5CA0744BF41F0C0
:10998000200121601BB9226822F0200222601022EF
:10999000B7E74D0648BF9BB2EFE76546B3FBF2F170
:1099A00002FB1133C35C05F8013D0B460029F5D1DC
:1099B000B9E7136825686169181D106028061B68DF
:1099C00001D5196002E06A06FBD5198000232361E6
:1099D0006546B9E71368191D11601D6862680021AA
:1099E000284601F065F908B1401B60606368236197
:1099F000002384F84330A7E723692A4639463046D6
:109A0000C0470130AAD023689B0713D4E068039BAA
:109A10009842B8BF1846A3E701234A463946304664
:109A2000C04701309AD00135E368039A9B1AAB42D4
:109A3000F2DCEBE7002504F11909F5E7002BACD1C6
:109A4000037884F8423004F142056CE7EDC200006F
:109A5000FEC20000024B0A460146186801F064BCD1
:109A6000A800002038B5064C0023054608462360B0
:109A700001F0B0FD431C02D1236803B12B6038BD57
:109A8000F4160020034611F8012B03F8012B002ADD
:109A9000F9D17047034613F8012B002AFBD1181A9D
:109AA00001387047F8B50E461446054618B183696B
:109AB0000BB901F001F8214B9C422AD16C68A369D3
:109AC000A360A3891A072ED5236963B3236920688D
:109AD000C01A6369F6B28342374604DC2146284641
